:020000040800F2
:10000000905C002081020008D33100085D0B0008DD
:10001000D1310008CD070008B13A00080000000007
:10002000000000000000000000000000E9010008DE
:10003000CF070008000000002D020008D53300089B
:100040009B0200089B0200089B0200089B0200081C
:100050009B0200089B0200089B0200089B0200080C
:100060009B0200089B0200089B0200089B020008FC
:100070009B0200089B0200089B0200089B020008EC
:100080009B0200089B0200089B0200089B020008DC
:100090009B0200089B0200089B0200089B020008CC
:1000A0009B0200089B0200089B0200089B020008BC
:1000B0009B0200087D3800089B0200089B02000894
:1000C0009B0200089B0200089B0200089B0200089C
:1000D0009B020008153900089B0200089B020008DB
:1000E0009B0200089B0200089B0200089B0200087C
:1000F0009B0200089B0200089B0200089B0200086C
:100100009B0200089B020008B93800089B02000807
:100110009B0200089B0200089B0200089B0200084B
:100120009B0200089B0200089B0200089B0200083B
:1001300000F002F800F048F80AA090E8000C8244B1
:100140008344AAF10107DA4501D100F03DF8AFF28E
:10015000090EBAE80F0013F0010F18BFFB1A43F0A5
:1001600001031847F475000014760000103A24BF0C
:1001700078C878C1FAD8520724BF30C830C144BF0C
:1001800004680C607047000000230024002500264E
:10019000103A28BF78C1FBD8520728BF30C148BFEA
:1001A0000B607047642900F00B81752900F008810D
:1001B000782900F04181732900F0438200207047C4
:1001C0001FB51FBD10B510BD00F0D1FA1146FFF7E5
:1001D000F7FF03F0C1FD00F0EFFA03B4FFF7F2FF01
:1001E00003BC03F051FD0000224B19680868B0E819
:1001F000F00F80F30988BFF36F8F4FF0000080F39A
:1002000011884EF00D0E704700000000064800688F
:10021000006880F3088862B661B6BFF34F8FBFF302
:100220006F8F00DF00BF00BF08ED00E0EFF3098033
:10023000BFF36F8F0F4B1A6820E9F00F106008B5FD
:100240004FF0500080F31188BFF34F8FBFF36F8FD3
:1002500004F06EFF4FF0000080F31188BDE8084005
:1002600019680868B0E8F00F80F30988BFF36F8F52
:10027000704700BF54000020EFF305807047000076
:100280000948804709480047FEE7FEE7FEE7FEE72A
:10029000FEE7FEE7FEE7FEE7FEE7FEE70448054966
:1002A000054A064B70470000E93300083101000899
:1002B00090560020905C002090580020905800201C
:1002C000704700000FB4044910B503AA029800F06B
:1002D000BDF910BC5DF814FB3C0000200FB41CB548
:1002E000074B06AA7B4469460090059800F07FF909
:1002F0000020694600F08EF91CBC5DF814FB00007C
:100300002D0300002DE9F0410E4604460020206236
:100310002046E168884730B3252805D0D4E901217B
:100320009047206A401CF2E7E16820460027884792
:10033000050018D0A5F14100192802D820354FF446
:1003400000673246294620462760FFF72BFF40B161
:10035000012804D0F61D26F007060836D8E7361D1A
:10036000D6E72846DAE7206ABDE8F08170B50C468A
:100370000546012A05D02878800600D5EA690023C1
:1003800002E0012305E05B1C934202D2E05C0028FE
:10039000F9D1A869E618C01AA861286A1844286229
:1003A0002846AFF3008004E0D5E9012114F8010BE1
:1003B0009047B442F8D32846AFF3008070BD0000E8
:1003C0002DE9F0410646002410687529314616A52E
:1003D00010D0AFF30080002802DA404213A507E0F6
:1003E00031688A0701D512A502E0490704D511A595
:1003F000012401E0AFF3008000210A2206F1240766
:1004000009E0B0FBF2FCB0FBF2F302FB1C00303061
:1004100078541846491C0028F3D123462A46304612
:10042000BDE8F04100F085B8000000002D0000009C
:100430002B0000002000000070B504460D46214648
:100440001068AFF300802188090502D50F4A7A446D
:1004500002E00E4A7A440E32002104F1240305E042
:1004600000F00F060009965D5E54491C0028F7D184
:1004700020780023000704D5702D02D009B1022393
:1004800011322046BDE8704000F053B8DE72000023
:10049000032A40F2308010F0030C00F0158011F8B0
:1004A000013BBCF1020F624498BF11F801CB00F888
:1004B000013B38BF11F8013BA2F1040298BF00F8DC
:1004C00001CB38BF00F8013B11F0030300F0D080EE
:1004D000083AC0F0088051F8043B083A51F804CBC0
:1004E000A0E80810F5E7121D5CBF51F8043B40F886
:1004F000043BAFF30080D20724BF11F8013B11F891
:1005000001CB48BF11F8012B24BF00F8013B00F8D4
:1005100001CB48BF00F8012B704702F0FF0343EA0C
:10052000032242EA024200F0D7B870477047704792
:1005300070472DE9F0470D4699469246044600F172
:1005400024080168880604D5E06921F010012160C3
:1005500000E00120A84201DD471B00E00027A1695F
:100560007A1902EB0900081AA0612078C00602D4AB
:100570002046AFF30080002608E0D4E901211AF8F4
:1005800006009047206A401C761C20624E45F4DB32
:100590002078C0060AD52046AFF3008006E0D4E9F3
:1005A000012130209047206A401C2062381EA7F1AC
:1005B0000107F4DC07E0D4E9012118F805009047B1
:1005C000206A401C2062281EA5F10105F3DC2046AC
:1005D000AFF300802078000602D50220BDE8F08746
:1005E0000120FBE701694A1C02610878704700B5E9
:1005F0008FB0CDE901310021059105497944CDE95C
:10060000031011466846FFF77DFE0FB000BD0000E5
:10061000E5FFFFFF0A6802F8010B0A60704710B59A
:10062000436913B1AFF3008001E0FFF79FFE0120A3
:1006300010BD127800F124010A7000224A700122D4
:10064000EDE711684FF0FF32E9E70000074B70B5A6
:100650000D467B44FFF7CBFF0446284600F05CF8CC
:1006600010B14FF0FF3070BD204670BDEB3600007A
:1006700010B5203AC0F00B80B1E81850203AA0E83D
:100680001850B1E81850A0E81850BFF4F5AF5FEA71
:10069000027C24BFB1E81850A0E8185044BF18C924
:1006A00018C0BDE810405FEA827C24BF51F8043BCB
:1006B00040F8043B08BF7047D20728BF31F8023B1F
:1006C00048BF11F8012B28BF20F8023B48BF00F8B3
:1006D000012B70474FF000020429C0F0128010F087
:1006E000030C00F01F80CCF1040CBCF1020F18BF0A
:1006F00000F8012BA8BF20F8022BA1EB0C0100F0A1
:1007000011B85FEAC17C24BF00F8012B00F8012B6F
:1007100048BF00F8012B7047007B00F08000704755
:100720004FF0000200B5134694469646203922BF8A
:10073000A0E80C50A0E80C50B1F12001BFF4F7AFD5
:10074000090728BFA0E80C5048BF0CC05DF804EBB7
:10075000890028BF40F8042B08BF704748BF20F825
:10076000022B11F0804F18BF00F8012B704775461F
:1007700000F028F8AE4605006946534620F0070011
:10078000854618B020B5FFF789FDBDE820404FF041
:1007900000064FF000074FF000084FF0000B21F06B
:1007A0000701AC46ACE8C009ACE8C009ACE8C00938
:1007B000ACE8C0098D4670470446AFF30080204680
:1007C000FFF70BFD004870472C560020FEE77047EE
:1007D00086B04FF010084FF0720A4FF0060B5B4FD7
:1007E00000F09AF905460026594C07E0C6EBC60012
:1007F00004EB8000806904F02BFC761CB86886420C
:10080000F4D354A0FFF75EFD56A0CDE90080464624
:1008100010236E224FF42F71962002F031FC3968BC
:100820004FF47A70B1FBF0F24FF08009CDE9006926
:1008300004234FF42F71FA2002F04CFC4DA0CDE9B7
:10084000006010236E224FF42F714FF4967002F067
:1008500017FCCDE9006908234FF42F714FF4C870DD
:100860002A6802F037FC002D61D00020B9680EE044
:10087000C0EBC00204EB8202AA4207D1C0EBC00069
:1008800004EB8000806904F025FB02E0401C8842F4
:10089000EED33C4900200446088038E0C4EB041045
:1008A00000EB8006732000EB460082B2052000EBCF
:1008B000460080B24FF49D736E2100F09BFA621CDB
:1008C00031A102A8FFF70AFD02A9CDE90081282085
:1008D00000EB460080B210233C224FF4AF7102F0CF
:1008E000CFFB2968601C814202D14FF4784001E0BF
:1008F0004FF6FF7000900AEB460082B20BEB460009
:1009000080B240F239136F2100F0E6FA641CB86837
:100910008442C3D3A868A0F57A70A8600DE0C5EB47
:10092000C50004EB8000806904F092FB6D1CB86880
:100930008542F4D3786904F08BFB386800F57A704F
:1009400038604FF47A7004F0EFF949E700000020B6
:10095000C8000020B1BEC2D6B5F7B6C8C8CECEF129
:10096000A3BA000063757272656E742074696D6558
:100970000000000063757272656E74205461736BC1
:1009800000000000300000207461736B25640000DB
:100990008000A0F1C0400029016802D041F00101AF
:1009A00001E0024A1140016070470000FEFF0F00A5
:1009B00010B5D0E901121143D0E903231A431143C2
:1009C0004269114382691143C2691143026A1143AA
:1009D000426A1143826A1143C26A1143026B114396
:1009E00002689200A2F1C04211608168082907D113
:1009F00001688900A1F1C0410A6842F040020A6022
:100A0000416BD1E9002342EA03128B688C891B02F7
:100A100043EA04431A430B8A42EA03520B7D896975
:100A200042EA03620A4301688900A1F1C0414A60B9
:100A3000C16AB1F5804F08D000686FF07041800046
:100A4000A0F1C040C0F8041110BD816BD1E90023B2
:100A500042EA03128B680C8A1B0243EA04531A43CE
:100A60000B7D896942EA036200680A438000A0F1B5
:100A7000C040C0F8042110BDF0B5CC78002204F0CD
:100A80000F03E40601D58C7823430C784FF00F0C4C
:100A900014F0FF0F4FF0010E1BD005680E880EFA00
:100AA00002F42640A64210D196000CFA06F725EA79
:100AB000070703FA06F5CE783D43282E02D0482ECC
:100AC00002D002E0446100E00461521C082AE5D330
:100AD00005600A88FF2A1CD94468002202F1080632
:100AE0000EFA06F50E882E40AE420ED196000CFA94
:100AF00006F7BC4303FA06F7CE783C43282E00D114
:100B00004561CE78482E00D10561521C082AE5D3F4
:100B10004460F0BD01617047F0B50F4A0020441EEB
:100B200001460C4F1668956811E0C1EBC10207EB56
:100B300082025368B34209D81369A34206D2D2F89D
:100B400008C0BCF1000F01D01C461046491CA94248
:100B5000EBD3F0BDC800002000000020FEE700003D
:100B600010B51148032400218460104847F2305228
:100B70000123C0E9011242F21071C16003600161FA
:100B8000C0E9092143F2B062C2624FF4FA63022263
:100B9000C0E90723C0E9103142F6E0615A008164E0
:100BA000C0E90E4210BD000000000020C800002077
:100BB00010B511480324114B8460002022460146E1
:100BC00043F82010401C9042FAD30D484FF47A624B
:100BD00041F28833C0E901120122426102600263DE
:100BE000C0E908130223C361C16384634FF4FA515F
:100BF000C264016410BD000000000020E00100207C
:100C0000C800002010B510480324104B8460002059
:100C10002146024643F82020401C8842FAD30C4863
:100C200049F64041C0E901210121416101604CF2D6
:100C30005031C0E9082102210163C1610549C46442
:100C40008463C0E90F2110BD00000020E0010020F6
:100C5000C80000208038010070B50949064600240C
:100C600008884D8821464543204602F049F902F0A4
:100C700075FA044801E00680641CAC42FBD370BDE9
:100C8000080200200008006C2DE9F04F2B4B2C27A8
:100C9000194698712B2589884FF4305A4FF4285BF8
:100CA0004FF4487441F6631E2A264FF0F00845F2CF
:100CB00010594FF4A07C4FF4F072C8B1A3F800C0F3
:100CC000A3F80280494533D1A3F808A0A3F80AB0DD
:100CD000280298811C805A80A1F5A640103802D1C4
:100CE0001A80A3F802C0BDE8F04F002002F066B8F9
:100CF000A3F80080A3F802C0494507D1A3F808A0D3
:100D0000A3F80AB04FF42C50988104E071451F817C
:100D100004D15D819E811A805C8001E05E819D81AD
:100D2000A1F5A6401038DED1A3F800C05A80DAE75A
:100D30001F815E8171459D81CCD0CDE708020020E6
:100D40002DE9FE4F0026A2EB000882465F1A701EB6
:100D500035468946B8F1000F02DD4FF0010102E08F
:100D600003D14FF00001019102E0C8F100080190A9
:100D7000002F02DD4FF0010002E003D14FF0000030
:100D8000009002E0C7F1000700904046B84501DD41
:100D9000044600E03C46601C4FF0000B029015E05A
:100DA0001FFA89F11FFA8AF000F016F846443D4414
:100DB000A64202DD0199361B8A44A54202DD009954
:100DC0002D1B89440BF101001FFA80FB02998B4512
:100DD000E6DDBDE8FE8F000000B502F091F802F0FC
:100DE000BDF9024802490088088000BD300000209B
:100DF0000008006CF0B51C4615460E4607460B462B
:100E0000FFF79EFF3A46234631461046FFF798FF0C
:100E100023462A4619463846FFF792FF2A462346BC
:100E20003146BDE8F0401046FFF78ABF2DE9F04794
:100E3000DFF89C9092464A46B9F80460DFF894C007
:100E400093890C0A050A5289A6F5A0480CF10207FD
:100E5000B8F5A2680CD0A6F5C858B8F1630816D04A
:100E6000ACF800203D80C0B23880ACF8003024E0FF
:100E7000ACF800203D80521CACF80020C0B2388095
:100E8000ACF800303C805B1CACF8003016E099F800
:100E9000066026B9B9F80050281A401E80B2ACF896
:100EA0000020020A3A80C5B23D803A80C0B2388044
:100EB000ACF800303C80C8B238803C80C8B2388082
:100EC000B9F80800ACF80000A7F800A0BDE8F0876A
:100ED00008020020FE07006C2DE9F0438146A2EBDA
:100EE0000900401C1F460C4685B2DFF83080079E83
:100EF0000FE02146484602F003F802F02FF90020E7
:100F0000414602E00E80401C80B2A842FAD3641C25
:100F1000A4B2BC42EDD9BDE8F08300000008006C2B
:100F20002DE9F04F01219FB0080202F091F9012153
:100F30004FF4B47002F098F90120ADF83C00102095
:100F40008DF83F0003248DF83E400FA9FE48FFF7BF
:100F500093FD4CF23370ADF83C0018258DF83F50EE
:100F60008DF83E400FA9F948FFF786FD4FF68070D7
:100F7000ADF83C008DF83F508DF83E400FA9F44885
:100F8000FFF77AFD41F20100ADF83C008DF83F50CB
:100F90008DF83E400FA9EF48FFF76EFD0120179036
:100FA00000200F21CDE918011A901B901C901D9074
:100FB0001090CDE91104149015900621CDE9001090
:100FC00016901021CDE90201139004900902CDE999
:100FD00008010690059007908900CDE90A010C9060
:100FE00017A80D9010A80E906846FFF7E1FC0121AC
:100FF0000620FFF7CDFC322002F06CFED64CD32049
:10100000208001F0B3FED54DA88001F0AFFE294647
:10101000888001F0ABFE4FF6FF77294607EA0020F3
:10102000888001F0A3FE294649F2413A898847F2B7
:1010300089760843294645F21038888045F21059D0
:1010400041F6631B504572D00420208001F08EFED3
:10105000A88001F08BFEA88001F088FE07EA00203E
:10106000A88001F083FEA9880843A0F50541A88067
:10107000523958D0B0425AD0D420208001F076FEA8
:10108000A88001F073FEA88001F070FE07EA00203E
:10109000A88001F06BFEA9880843A880404546D08F
:1010A00055214FF4704002F063F8AA214FF201007D
:1010B00002F05EF852214FF2020002F059F80821C6
:1010C0004FF2030002F054F801214FF2040002F045
:1010D0004FF84FF44540208001F048FE07EA002019
:1010E000A8804CF20150208001F040FEA9880843FE
:1010F000A880052002F0EEFDA988494517D0A1205F
:10110000208001F033FEA88001F030FE07EA0020C5
:10111000A88001F02BFEA9880843A0F5AE41A88065
:10112000613902D003E0AE8001E0A5F804B0A988DF
:101130008BA0FFF7C7F8A888874DAD1C50457DD11F
:10114000CF20208000202880C120288030202880C7
:10115000ED20208064202880032028801220288011
:1011600081202880E8202080852028801020288069
:101170007A202880CB202080392028802C202880AD
:10118000002028803420288002202880F72020801A
:1011900020202880EA202080002028802880C0206D
:1011A00020801B202880C120208001202880C5208D
:1011B0002080302028802880C7202080B7202880E9
:1011C00036202080482028803A2020805520288002
:1011D000B1202080002028801A202880B62020807E
:1011E0000A202880A2202880F22020800020288049
:1011F0002620208001202880E02020800F202880C9
:101200002A20288028202880082028800E20288056
:101210000820288054202880A92028804320288066
:101220000A2028800F2028800020288028802880FD
:101230002880E12020800020288000E031E0152077
:101240002880172028800720288011202880062049
:1012500028802B202880562028803C2028800520AC
:101260002880102028800F2028803F202880288078
:101270000F2028802B20208000202880288001201B
:1012800028803F2028802A20208000202880288055
:101290002880EF20288011202080782002F01AFD7D
:1012A0009EE0B0427ED111202080782002F012FD15
:1012B00036202080002028803A20208005202880A9
:1012C000B22020800C202880288000202880332015
:1012D00028802880B720208035202880BB202080CF
:1012E00032202880C02020800C202880C22020802E
:1012F00001202880C320208010202880C420208046
:1013000020202880C62020800F202880D020208008
:10131000A4202880A1202880E0202080D0202880C0
:101320000020288002202880072028800A2028808A
:1013300028202880322028804420288042202880AD
:10134000062028800E2013E0000C0140001401400C
:101350000018014000200140FE07006C0802002038
:10136000204C43442049443A25780D0A00000000EF
:101370002880122028801420288017202880E1202F
:101380002080D0202880002028800220288007206C
:1013900028800A2028802820288031202880542076
:1013A000288000E01FE0472028800E2028801C2095
:1013B0002880172028801B2028801E2028802A2093
:1013C00020800020288028802880EF2028802B2063
:1013D0002080002028802880012028803F2028802D
:1013E000292001F02EBC40457ED1ED202080012037
:1013F0002880FE202880EE202080DE2028802120EA
:101400002880F120208001202880DF2020801020EB
:101410002880C42020808F202880C62020800020A3
:101420002880E220288028802880BF202080AA20D1
:101430002880B02020800D202880002028800D20CA
:101440002880002028801120288000202880192052
:1014500028800020288021202880002028802D201E
:101460002880002028803D202880002028805D20C2
:101470002880002028805D20288000202880B1203E
:10148000208080202880002028808B202880002039
:1014900028809620288000202880B22020800020EC
:1014A000288028800220288000202880032028808F
:1014B00000202880B32020800020288028802880D9
:1014C00028802880288028802880288028802880DC
:1014D00028802880288028802880288028802880CC
:1014E00028802880288000E0FEE328802880B4201F
:1014F00020808B20288000202880962028800020B3
:101500002880A120288000202880B520208002206B
:1015100028800020288003202880002028800420A4
:10152000288000202880B620208000202880288065
:10153000B72020800020288028803F20288000209D
:1015400028805E20288000202880642028800020B9
:1015500028808C20288000202880AC202880002033
:101560002880DC202880002028807020288000200F
:1015700028809020288000202880EB2028800020D0
:101580002880DC20288000202880B82020800020AF
:10159000288028802880288028802880288028800B
:1015A000BA202080242028800020288028802880BD
:1015B000C1202080202028800020288054202880DE
:1015C00000202880FF20288000202880C220208042
:1015D0000A202880002028800420288000202880DD
:1015E000C32020803C202880002028803A202880AA
:1015F000002028803920288000202880372028805B
:10160000002028803C202880002028803620288048
:101610000020288032202880002028802F20288049
:10162000002028802C202880002028802920288045
:101630000020288026202880002028802420288040
:101640000020288024202880002028802320288033
:10165000002028803C2028800020288036202880F8
:101660000020288032202880002028802F202880F9
:10167000002028802C2028800020288029202880F5
:1016800000202880262028800020288024202880F0
:1016900000202880242028800020288023202880E3
:1016A00000202880C42020806220288000202880FC
:1016B0000520288000202880842028800020288081
:1016C000F0202880002028801820288000202880F2
:1016D000A42028800020288018202880002028802E
:1016E00050202880002028800C202880002028807E
:1016F000172028800020288095202880002028801E
:10170000F320288000202880E620288000202880E0
:10171000C520208032202880002028804420288076
:1017200000202880652028800020288076202880BE
:10173000002028808820288000202880C620208043
:101740002020288000202880172028800020288042
:101750000120288000202880C720208000202880A9
:10176000288028802880C820208000202880288089
:1017700028802880C9202080002028802880288078
:101780002880288028802880288028802880288019
:1017900028802880288028802880E020208016202B
:1017A0002880002028801C202880002028802120DC
:1017B000288000202880362028800020288046208D
:1017C0002880002028805220288000202880642043
:1017D0002880002028807A202880002028808B20E4
:1017E0002880002028809920288000202880A82098
:1017F000288000202880B920288000202880C4204C
:10180000288000202880CA20288000202880D2201C
:10181000288000202880D920288000202880E020EF
:10182000288000202880F320288000202880E120C4
:10183000208016202880002028801C20288000205E
:101840002880222028800020288036202880002020
:1018500028804520288000202880522028800020D1
:10186000288064202880002028807A20288000207A
:1018700028808B2028800020288099202880002024
:101880002880A820288000202880B92028800020D7
:101890002880C420288000202880CA20288000209A
:1018A0002880D220288000202880D820288000206E
:1018B0002880E020288000202880F3202880002035
:1018C0002880E220208005202880002028800B200E
:1018D0002880002028801B20288000202880342099
:1018E00028800020288044202880002028804F2045
:1018F00028800020288061202880002028807920EE
:101900002880002028808820288000202880972098
:10191000288000202880A620288000202880B7204A
:10192000288000202880C220288000202880C7200E
:10193000288000202880D120288000202880D620E0
:10194000288000202880DD20288000202880F320A7
:10195000288000202880E320208005202880002087
:1019600028800A202880002028801C202880002031
:1019700028803320288000202880442028800020D0
:101980002880502028800020288062202880002085
:101990002880782028800020288088202880002027
:1019A00028809720288000202880A62028800020DA
:1019B0002880B720288000202880C220288000208E
:1019C0002880C720288000202880D120288000205F
:1019D0002880D520288000202880DD202880002035
:1019E0002880F320288000202880E4202080012007
:1019F00028800020288001202880002028800220C4
:101A00002880002028802A202880002028803C2050
:101A10002880002028804B202880002028805D20FE
:101A2000288000202880742028800020288084209E
:101A30002880002028809320288000202880A22051
:101A4000288000202880B320288000202880BE2005
:101A5000288000202880C420288000202880CD20D5
:101A6000288000202880D320288000202880DD20A6
:101A7000288000202880F320288000202880E5206E
:101A8000208000202880288028802880022028802C
:101A90000020288029202880002028803C202880C1
:101AA000002028804B202880002028805D2028806E
:101AB000002028807420288000202880842028800E
:101AC000002028809320288000202880A2202880C1
:101AD00000202880B320288000202880BE20288075
:101AE00000202880C420288000202880CD20288045
:101AF00000202880D320288000202880DC20288017
:101B000000202880F320288000202880E6202080E4
:101B10001120288000202880342028800020288060
:101B200056202880002028807620288000202880C9
:101B300077202880002028806620288000202880A8
:101B40008820288000202880992028800020288054
:101B5000BB20288000202880992028800020288011
:101B6000662028800020288055202880002028809A
:101B700055202880002028804520288000202880AB
:101B800043202880002028804420288000202880AE
:101B9000E7202080322028800020288055202880BF
:101BA0000020288076202880002028806620288039
:101BB0000020288067202880002028806720288037
:101BC00000202880872028800020288099202880D5
:101BD00000202880BB202880002028809920288091
:101BE000002028807720288000202880442028801A
:101BF000002028805620288000202880232028804C
:101C0000002028803320288000202880452028803C
:101C100000202880E820208000202880288099202B
:101C20002880002028808720288000202880882085
:101C300028800020288077202880002028806620A7
:101C40002880002028808820288000202880AA2042
:101C5000288000202880BB20288000202880992010
:101C60002880002028806620288000202880552099
:101C700028800020288055202880002028804420AB
:101C8000288000202880442028800020288055209B
:101C9000288000202880E9202080AA202880002099
:101CA0002880288028802080AA202880CF2020809B
:101CB000002028802880288028802880288028806C
:101CC00028802880288028802880288028802880D4
:101CD00028802880F0202080002028805020288024
:101CE00000202880288000E02BE02880F32020803E
:101CF00000202880F92020800620288010202880BD
:101D000029202880002028803A2020805520288003
:101D100011202080642001F0DDFF29202080352063
:101D200020800020288051202080FF202880532000
:101D300020802C20288055202080822028802C2064
:101D4000FDE348457ED14FF470495521484601F0E6
:101D50000FFA4FF20108AA21404601F009FA4FF2AA
:101D600002035221184601F003FA4FF2030508213D
:101D7000284601F0FDF96E1C0121304601F0F8F90A
:101D80000D214FF4304001F0F3F90D214BF2010029
:101D900001F0EEF90D214BF2020001F0E9F94FF4E8
:101DA000364A3421504601F0E3F934214BF2016008
:101DB00001F0DEF934214BF2026001F0D9F94FF461
:101DC000314B0D21584601F0D3F90D214BF2011092
:101DD00001F0CEF90D214BF2021001F0C9F93421C6
:101DE0004FF4374001F0C4F934214BF2017001F097
:101DF000BFF934214BF2027001F0BAF900214FF41F
:101E0000324001F0B5F900214BF2012001F0B0F9A8
:101E100000214BF2022001F0ABF924214FF43840AD
:101E200001F0A6F924214BF6010001F0A1F92421CB
:101E30004BF6020001F09CF901214FF43F4001F004
:101E400097F900E0FEE30F214FF4334001F090F9E1
:101E50000F214BF2013001F08BF90F214BF20230D0
:101E600001F086F934214FF4394001F081F9342131
:101E70004BF6011001F07CF934214BF6021001F011
:101E800077F908214FF4354001F072F908214BF23F
:101E9000015001F06DF908214BF2025001F068F990
:101EA00003214FF4424001F063F924214FF43A40FA
:101EB00001F05EF924214BF6012001F059F92421AB
:101EC0004BF6022001F054F900214FF43C4001F0A0
:101ED0004FF978214BF6014001F04AF900214BF609
:101EE000024001F045F900214FF43D4001F040F976
:101EF00078214BF6015001F03BF900214BF60250DE
:101F000001F036F900214FF43E4001F031F964212F
:101F10004BF6016001F02CF900214FF4514001F023
:101F200027F933214DF2011001F022F900214DF281
:101F3000021001F01DF934214DF2031001F018F9DF
:101F400000214DF2041001F013F93A214DF2051071
:101F500001F00EF900214DF2061001F009F94A21B5
:101F60004DF2071001F004F900214DF2081001F0C4
:101F7000FFF85C214DF2091001F0FAF800214DF252
:101F80000A1001F0F5F881214DF20B1001F0F0F884
:101F900000214DF20C1001F0EBF8A6214DF20D10CE
:101FA00001F0E6F800214DF20E1001F0E1F8E52114
:101FB0004DF20F1001F0DCF801214DF2101001F08C
:101FC000D7F813214DF2111001F0D2F801214DF292
:101FD000121001F0CDF854214DF2131001F0C8F8A1
:101FE00001214DF2141001F0C3F882214DF21510B9
:101FF00001F0BEF801214DF2161001F0B9F8CA2126
:102000004DF2171001F0B4F802214DF2181001F052
:10201000AFF800214DF2191001F0AAF802214DF29B
:102020001A1001F0A5F801214DF21B1001F0A0F8E3
:1020300002214DF21C1001F09BF834214DF21D10CD
:1020400001F096F802214DF21E1001F091F867217F
:102050004DF21F1001F08CF802214DF2201001F01A
:1020600087F884214DF2211001F082F802214DF20F
:10207000221001F07DF8A4214DF2231001F078F830
:1020800002214DF2241001F073F8B7214DF2251012
:1020900001F06EF802214DF2261001F069F8CF210F
:1020A0004DF2271001F064F802214DF2281001F0E2
:1020B0005FF8DE214DF2291001F05AF802214DF2AD
:1020C0002A1001F055F8F2214DF22B1001F050F8D2
:1020D00002214DF22C1001F04BF8FE214DF22D1093
:1020E00001F046F803214DF22E1001F041F81021C5
:1020F0004DF22F1001F03CF803214DF2301001F0A9
:1021000037F833214DF2311001F032F803214DF24E
:10211000321001F02DF86D214DF2331001F028F846
:1021200000214FF4524001F023F833214DF20120F9
:1021300001F01EF800214DF2022001F019F83421BF
:102140004DF2032001F014F800214DF2042001F0BB
:102150000FF83A214DF2052001F00AF800214DF266
:10216000062001F005F84A214DF2072001F000F8A1
:1021700000214DF2082000F0FBFF5C214DF2092008
:1021800000F0F6FF00214DF20A2000F0F1FF81215E
:102190004DF20B2000F0ECFF00214DF20C2000F07E
:1021A000E7FFA6214DF20D2000F0E2FF00214DF2E5
:1021B0000E2000F0DDFFE5214DF20F2000F0D8FFEA
:1021C00001214DF2102000F0D3FF13214DF2112018
:1021D00000F0CEFF01214DF2122000F0C9FF542182
:1021E0004DF2132000F0C4FF01214DF2142000F045
:1021F000BFFF82214DF2152000F0BAFF01214DF200
:10220000162000F0B5FFCA214DF2172000F0B0FFF4
:1022100002214DF2182000F0ABFF00214DF21920F1
:1022200000F0A6FF02214DF21A2000F0A1FF0121CB
:102230004DF21B2000F09CFF02214DF21C2000F00B
:1022400097FF34214DF21D2000F092FF02214DF244
:102250001E2000F08DFF67214DF21F2000F088FF47
:1022600002214DF2202000F083FF84214DF2212035
:1022700000F07EFF02214DF2222000F079FFA42120
:102280004DF2232000F074FF02214DF2242000F0D3
:102290006FFFB7214DF2252000F06AFF02214DF2B9
:1022A000262000F065FFCF214DF2272000F060FFCF
:1022B00002214DF2282000F05BFFDE214DF22920A3
:1022C00000F056FF02214DF22A2000F051FFF221CA
:1022D0004DF22B2000F04CFF02214DF22C2000F09B
:1022E00047FFFE214DF22D2000F042FF03214DF269
:1022F0002E2000F03DFF10214DF22F2000F038FF7E
:1023000003214DF2302000F033FF33214DF2312014
:1023100000F02EFF03214DF2322000F029FF6D2145
:102320004DF2332000F024FF00214FF4534000F021
:102330001FFF33214DF2013000F01AFF00214DF252
:10234000023000F015FF34214DF2033000F010FF91
:1023500000214DF2043000F00BFF3A214DF2053020
:1023600000F006FF00214DF2063000F001FF4A2187
:102370004DF2073000F0FCFE00214DF2083000F075
:10238000F7FE5C214DF2093000F0F2FE00214DF223
:102390000A3000F0EDFE81214DF20B3000F0E8FE36
:1023A00000214DF20C3000F0E3FEA6214DF20D307D
:1023B00000F0DEFE00214DF20E3000F0D9FEE521E6
:1023C0004DF20F3000F0D4FE01214DF2103000F03C
:1023D000CFFE13214DF2113000F0CAFE01214DF263
:1023E000123000F0C5FE54214DF2133000F0C0FE53
:1023F00001214DF2143000F0BBFE82214DF2153068
:1024000000F0B6FE01214DF2163000F0B1FECA21F7
:102410004DF2173000F0ACFE02214DF2183000F002
:10242000A7FE00214DF2193000F0A2FE02214DF26C
:102430001A3000F09DFE01214DF21B3000F098FE95
:1024400002214DF21C3000F093FE34214DF21D307C
:1024500000F08EFE02214DF21E3000F089FE672151
:102460004DF21F3000F084FE02214DF2203000F0CA
:102470007FFE84214DF2213000F07AFE02214DF2E0
:10248000223000F075FEA4214DF2233000F070FEE2
:1024900002214DF2243000F06BFEB7214DF22530C1
:1024A00000F066FE02214DF2263000F061FECF21E1
:1024B0004DF2273000F05CFE02214DF2283000F092
:1024C00057FEDE214DF2293000F052FE02214DF27E
:1024D0002A3000F04DFEF2214DF22B3000F048FE84
:1024E00002214DF22C3000F043FEFE214DF22D3042
:1024F00000F03EFE03214DF22E3000F039FE102197
:102500004DF22F3000F034FE03214DF2303000F058
:102510002FFE33214DF2313000F02AFE03214DF21F
:10252000323000F025FE6D214DF2333000F020FEF8
:1025300000214FF4544000F01BFE332100E080E303
:102540004DF2014000F014FE00214DF2024000F077
:102550000FFE34214DF2034000F00AFE00214DF23F
:10256000044000F005FE3A214DF2054000F000FE67
:1025700000214DF2064000F0FBFD4A214DF20740DC
:1025800000F0F6FD00214DF2084000F0F1FD5C2165
:102590004DF2094000F0ECFD00214DF20A4000F040
:1025A000E7FD81214DF20B4000F0E2FD00214DF2EC
:1025B0000C4000F0DDFDA6214DF20D4000F0D8FDED
:1025C00000214DF20E4000F0D3FDE5214DF20F4009
:1025D00000F0CEFD01214DF2104000F0C9FD1321A5
:1025E0004DF2114000F0C4FD01214DF2124000F007
:1025F000BFFD54214DF2134000F0BAFD01214DF210
:10260000144000F0B5FD82214DF2154000F0B0FD00
:1026100001214DF2164000F0ABFDCA214DF21740EA
:1026200000F0A6FD02214DF2184000F0A1FD0021AE
:102630004DF2194000F09CFD02214DF21A4000F0CD
:1026400097FD00E0FFE201214DF21B4000F090FDFC
:1026500002214DF21C4000F08BFD34214DF21D4053
:1026600000F086FD02214DF21E4000F081FD672141
:102670004DF21F4000F07CFD02214DF2204000F0A1
:1026800077FD84214DF2214000F072FD02214DF2D0
:10269000224000F06DFDA4214DF2234000F068FDC2
:1026A00002214DF2244000F063FDB7214DF2254098
:1026B00000F05EFD02214DF2264000F059FDCF21D1
:1026C0004DF2274000F054FD02214DF2284000F069
:1026D0004FFDDE214DF2294000F04AFD02214DF26E
:1026E0002A4000F045FDF2214DF22B4000F040FD64
:1026F00002214DF22C4000F03BFDFE214DF22D4019
:1027000000F036FD03214DF22E4000F031FD102186
:102710004DF22F4000F02CFD03214DF2304000F02F
:1027200027FD33214DF2314000F022FD03214DF20F
:10273000324000F01DFD6D214DF2334000F018FDD8
:1027400000214FF4554000F013FD33214DF20150AC
:1027500000F00EFD00214DF2025000F009FD342181
:102760004DF2035000F004FD00214DF2045000F042
:10277000FFFC3A214DF2055000F0FAFC00214DF229
:10278000065000F0F5FC4A214DF2075000F0F0FC35
:1027900000214DF2085000F0EBFC5C214DF2095095
:1027A00000F0E6FC00214DF20A5000F0E1FC81212E
:1027B0004DF20B5000F0DCFC00214DF20C5000F00B
:1027C000D7FCA6214DF20D5000F0D2FC00214DF2B5
:1027D0000E5000F0CDFCE5214DF20F5000F0C8FC8A
:1027E00001214DF2105000F0C3FC13214DF21150A5
:1027F00000F0BEFC01214DF2125000F0B9FC542152
:102800004DF2135000F0B4FC01214DF2145000F0D1
:10281000AFFC82214DF2155000F0AAFC01214DF2CF
:10282000165000F0A5FCCA214DF2175000F0A0FC94
:1028300002214DF2185000F09BFC00214DF219507E
:1028400000F096FC02214DF21A5000F091FC01219B
:102850004DF21B5000F08CFC02214DF21C5000F098
:1028600087FC34214DF21D5000F082FC02214DF214
:102870001E5000F07DFC67214DF21F5000F078FCE7
:1028800002214DF2205000F073FC84214DF22150C2
:1028900000F06EFC02214DF2225000F069FCA421F0
:1028A0004DF2235000F064FC02214DF2245000F060
:1028B0005FFCB7214DF2255000F05AFC02214DF289
:1028C000265000F055FCCF214DF2275000F050FC6F
:1028D00002214DF2285000F04BFCDE214DF2295030
:1028E00000F046FC02214DF22A5000F041FCF2219A
:1028F0004DF22B5000F03CFC02214DF22C5000F028
:1029000037FCFE214DF22D5000F032FC03214DF238
:102910002E5000F02DFC10214DF22F5000F028FC1D
:1029200003214DF2305000F023FC33214DF23150A1
:1029300000F01EFC03214DF2325000F019FC6D2115
:102940004DF2335000F014FC00214FF4564000F0DB
:102950000FFC33214DF2016000F00AFC00214DF222
:10296000026000F005FC34214DF2036000F000FC31
:1029700000214DF2046000F0FBFB3A214DF20560AE
:1029800000F0F6FB00214DF2066000F0F1FB4A2159
:102990004DF2076000F0ECFB00214DF2086000F002
:1029A000E7FB5C214DF2096000F0E2FB00214DF2F3
:1029B0000A6000F0DDFB81214DF20B6000F0D8FBD6
:1029C00000214DF20C6000F0D3FBA6214DF20D600A
:1029D00000F0CEFB00214DF20E6000F0C9FBE521B6
:1029E0004DF20F6000F0C4FB01214DF2106000F0C9
:1029F000BFFB13214DF2116000F0BAFB01214DF233
:102A0000126000F0B5FB54214DF2136000F0B0FBF2
:102A100001214DF2146000F0ABFB82214DF21560F4
:102A200000F0A6FB01214DF2166000F0A1FBCA21C7
:102A30004DF2176000F09CFB02214DF2186000F08F
:102A400097FB00214DF2196000F092FB02214DF23C
:102A50001A6000F08DFB01214DF21B6000F088FB35
:102A600002214DF21C6000F083FB34214DF21D6009
:102A700000F07EFB02214DF21E6000F079FB672121
:102A80004DF21F6000F074FB02214DF2206000F057
:102A90006FFB84214DF2216000F06AFB02214DF2B0
:102AA000226000F065FBA4214DF2236000F060FB82
:102AB00002214DF2246000F05BFBB7214DF225604E
:102AC00000F056FB02214DF2266000F051FBCF21B1
:102AD0004DF2276000F04CFB02214DF2286000F01F
:102AE00047FBDE214DF2296000F042FB02214DF24E
:102AF0002A6000F03DFBF2214DF22B6000F038FB24
:102B000002214DF22C6000F033FBFE214DF22D60CE
:102B100000F02EFB03214DF22E6000F029FB102166
:102B20004DF22F6000F024FB03214DF2306000F0E5
:102B30001FFB33214DF2316000F01AFB03214DF2EF
:102B4000326000F015FB6D214DF2336000F010FB98
:102B50005521484600F00CFBAA21404600F008FB36
:102B60005221184600F004FB0821284600F000FB23
:102B70000021304600F0FCFACC21584600F0F8FA6B
:102B800000214BF2011000F0F3FA0521504600F04D
:102B9000EFFA70214FF4374000F0EAFA70214BF25F
:102BA000017000F0E5FA01214FF4384000F0E0FA3E
:102BB00003214BF6010000F0DBFA03214BF6020083
:102BC00000F0D6FA03214BF6030000F0D1FA0221FF
:102BD0004FF43C4000F0CCFA00214BF6014000F0ED
:102BE000C7FA00214BF6024000F0C2FAD0214FF4A0
:102BF000494000F0BDFA02214CF6011000F0B8FA8D
:102C000050214CF6021000F0B3FA50214CF603109C
:102C100000F0AEFA50214CF6041000F0A9FA0021A1
:102C20004FF4545000F0A4FA55214FF4685000F0CE
:102C30009FFA4FF488502080782001F067F84FF415
:102C4000245020807BE0584579D1E22020801D204F
:102C500028800220288004202880642001F056F873
:102C6000E0202080012028800A2001F033F8E020B5
:102C70002080032028800C2001F02CF801202080E7
:102C80000A2001F027F8E62020802F202880FF204E
:102C900028802880B02020802020288000202880C4
:102CA0000320288040F21F3028800120288040F235
:102CB000DF10288000202880B42020800420288075
:102CC00040F21F402880002028802E2028800020ED
:102CD0002880288028802880B62020800220288014
:102CE0004FF40370288000202880172028801520AA
:102CF0002880002028802880F02020800320288041
:102D000029202080D020208000202880BE20208004
:102D100005202880FE20288001202880002028808F
:102D200028802880B8202080032028800120288047
:102D3000BA20208001202880642000F021F80020A3
:102D4000FDF7A2FF04490120C1F880013846FDF7D4
:102D500083FF1FB0BDE8F08F0080214203460120B1
:102D600000E05843491EC9B2FBD27047034808B57A
:102D70000088ADF80000BDF8000008BD0008006C38
:102D80000C4A10B5BE211180941C0521218002F04F
:102D9000DEFF4FF06632084B02F0ECFF02F0AAFFB4
:102DA000208001202080FF202080002020802080A3
:102DB00010BD0000FE07006C6666044070B54E4D05
:102DC00000232946AA79898841F66314012A01D093
:102DD0001AB11BE0A14202D118E0A14216D1082885
:102DE00014D2DFE800F00406080A0C0E10120620C8
:102DF0000CE007200AE0042008E0052006E001209E
:102E000004E0002002E0032000E00220082812D2A3
:102E1000DFE800F0110406080A0C0E1080230AE017
:102E2000402308E0C02306E0202304E0602302E002
:102E3000A02300E0E02345F21056B14202D14FF446
:102E4000585000E03620A1F51342413A03D0A1F5D5
:102E5000EE42893A01D143F00803194600F088F99F
:102E6000AA88A2420AD098062888698802D5884292
:102E700002D303E0884201D9298068801F48811C61
:102E8000B2426A89028021D100230B80531C038047
:102E900000230B80931C03802B885B1E1C0A0C8074
:102EA000D21C0280DAB20A80AA89028000230B8039
:102EB000531C038000230B80931C03806B885B1ED4
:102EC0001C0A0C80D21C0280D8B212E000220A80B8
:102ED0000A802A88521E130A0B80D2B20A80AA895D
:102EE00002800020088008806888401E020A0A804C
:102EF000C0B2088070BD000008020020FE07006C10
:102F00002DE9F043DFF8A490294F4A46B9F804C0F0
:102F10009389050A0C0ABE1C5289ACF5C858B8F151
:102F200063080ED0ACF5A048B8F5A2683A803580A9
:102F300033D0C0B230803B803480C8B23080BDE82E
:102F4000F083DFF868C099F80680BCF800C0B8F1DB
:102F5000000F16D03A803580C0B23080ACF1010C41
:102F60004FEA1C2030800CF0FF0030803B80348022
:102F7000C8B23080B9F80200401E010A3180C0B2E8
:102F8000DCE7ACEB0000401E80B23A8000223280C9
:102F90003280020A3280C0B2E7E7521C3A80C0B2E7
:102FA00030803B8034805B1C3B80C6E708020020F9
:102FB000FE07006C2DE9F84F82461F460C468B46F3
:102FC000580700D0012000EBD70079084843203A89
:102FD000C0B202F0FF090026009041E00C2F10D093
:102FE000102F12D0182F3ED1204909EBC90001EB58
:102FF00080004FF00008855D28060AD51C4802882D
:103000000BE009EB49001B49F1E71B4901EB0910F3
:10301000EFE70A9828B91648428821465046FDF73E
:1030200005FF6806050E1548641CA4B24088A0423E
:1030300019D9A4EB0B00B84209D10AF101001FFA1B
:1030400080FA0E485C46018851450CD906E008F12B
:10305000010000F0FF08B8F1080FCDD3761CF6B2DE
:1030600000988642BAD3BDE8F88F0000D469000802
:1030700030000020705F0008E463000808020020B0
:103080002DE9F84F044600F0FF0810190D46DDE960
:103090000A761FFA80FA58191FFA80F94FF0000BD0
:1030A00011E0544502D3E819444685B24D450FD28C
:1030B0003B4629462046CDF800B0FFF77BFF04EBE6
:1030C000570084B2761C3278A2F120005E28E8D93D
:1030D000BDE8F88F2DE9FF4F81B08046DDF83CA0B8
:1030E0000E984FF000091F4693464C460AF0010522
:1030F00046082BE0381B401EC1B20A20FFF72EFE07
:10310000BBFBF0F00A21B0FBF1F201FB1200B9F1B8
:10311000000F05D1791E8C4202DA48B14FF0010947
:103120003030C2B206FB048080B200950E9B08E0EE
:103130005FEA0A6006FB04800E9B80B200950AD508
:1031400030220299FFF736FF641CE4B2BC42D1D3AF
:1031500005B0BDE8F08F2022F3E7000002480349E4
:10316000008908807047000008020020FE07006CFC
:10317000024A1080901C018070470000FE07006C1E
:1031800038B50121482000F06FF82024ADF8004048
:1031900010208DF8030003200B4D8DF802006946C6
:1031A0002846FDF769FC20212846FDF7B3FCADF861
:1031B0000040064C69462046FDF75EFC2021204673
:1031C000FDF7A8FC38BD0000000C014000180140CC
:1031D000FEE7704730B50F23C27801780125F2B1C0
:1031E000144A126801F1E02102F4E062C2F5E062E3
:1031F000120AC2F10404D3404278A24084781C40F1
:103200001443220181F80024007800F01F018D4052
:103210004009800000F1E020C0F8005130BD01F00D
:103220001F0085404809800000F1E020C0F880516F
:1032300030BD00000CED00E002490843024908607F
:10324000704700000000FA050CED00E0FEE700000A
:10325000044A0029516901D0014300E081435161D2
:103260007047000000100240044A0029916901D013
:10327000014300E08143916170470000001002406B
:1032800030B5204A5168204B11F00C0103D00429BD
:1032900001D0082901D0036012E05168536801F49D
:1032A00070114FF0020413F4803F04EB914102D0FF
:1032B00053689B0301D5154B00E0134B5943016044
:1032C00051680F2303EA1111114B5C5C0168E14066
:1032D00041605468072505EA14241C5D21FA04F4B2
:1032E0008460546805EAD4241B5DD940C1605268EB
:1032F000032303EA9232064B1B1F9A5CB1FBF2F1E7
:10330000016130BD0010024000127A0000093D004A
:10331000440000200CB5002226480092019201686A
:1033200041F4803101604FF4A063016801F4003181
:1033300001910099491C0091019911B90099994294
:10334000F3D10168890333D5012101911A490A6833
:1033500042F010020A600A6822F003020A600A685A
:1033600042F002020A604168416041684160416880
:1033700041F480614160416821F47C114160416801
:1033800041F4E8114160016841F080710160016819
:103390008901FCD5416821F003014160416841F099
:1033A000020141604168C1F381010229FAD10CBDDB
:1033B00001920CBD00100240002002404FF0E021BD
:1033C0000428086903D020F004000861704740F029
:1033D0000400FAE710B502F031FA012803D0BDE885
:1033E000104001F01FBF10BD0F4810B5016841F03B
:1033F0000101016041680D4A1140416001680C4AB9
:1034000011400160016821F480210160416821F4CC
:10341000FE0141604FF41F018160FFF77BFF05490A
:103420004FF00060086010BD001002400000FFF87F
:10343000FFFFF6FE08ED00E01CB5394F00200090BC
:103440004FF0FF387C69374D4FF47A76CDF8048021
:10345000686801280BD12868009AB0FBF6F132A009
:10346000521CFCF72FFF286800F57A702860686806
:10347000022807D12868009AB0FBF6F12AA0521C56
:10348000FCF720FF6868032801D0042843D1009A84
:10349000C2EBC20007EB80008368002B2AD0A3F5A3
:1034A0007A7383602868521CB0FBF6F122A0FCF707
:1034B00009FF641E2BD10098C0EBC00007EB800011
:1034C0008068B8B1002342466946E86802F012F805
:1034D000012809D01FA0FCF7F5FE0098C0EBC00042
:1034E00007EB8000446912E0009921A0491CFCF719
:1034F000E9FEF2E728680122B0FBF6F121A0FCF713
:10350000E1FE0023424601A9E86801F0F3FF2868C4
:1035100000F57A702860304601F006FC98E700005C
:10352000C8000020000000205425643A2074617314
:103530006B256420200D0A005425643A20746173C1
:103540006B25642C2072656D61696E732025642083
:103550000D0A00004661696C656420746F20656E19
:103560007175657565207461736B2E200D0A0000FE
:103570007461736B256420696E20616761696E2ECA
:10358000200D0A00542564207461736B2564206942
:103590007320656E642E200D0A0000001CB501200A
:1035A00000903B484FF0FF383A4D046B07464FF40C
:1035B0007A76CDF80480686801280BD12868009AD3
:1035C000B0FBF6F134A0521CFCF77CFE286800F535
:1035D0007A7028606868022807D12868009AB0FBD2
:1035E000F6F12DA0521CFCF76DFE6868032801D08F
:1035F000042843D1009AC2EBC20007EB8000836825
:10360000002B3FD0A3F57A7383602868521CB0FB6F
:10361000F6F125A0FCF756FE641E2BD10098C0EBF6
:10362000C00007EB80008068B8B1002342466946BD
:10363000E86801F05FFF012809D022A0FCF742FEF4
:103640000098C0EBC00007EB8000446912E00099CD
:1036500023A0491CFCF736FEF2E728680122B0FBE4
:10366000F6F124A0FCF72EFE0023424601A9E868EB
:1036700001F040FF286800F57A702860304601F0BC
:1036800053FB98E728680222B0FBF6F1E9E7000057
:10369000C8000020000000205425643A20746173A3
:1036A0006B256420200D0A005425643A2074617350
:1036B0006B25642C2072656D61696E732025642012
:1036C0000D0A00004661696C656420746F20656EA8
:1036D0007175657565207461736B2E200D0A00008D
:1036E0007461736B256420696E20616761696E2E59
:1036F000200D0A00542564207461736B25642069D1
:103700007320656E642E200D0A0000001CB5022097
:1037100000903B484FF0FF383A4DC46C07464FF4D9
:103720007A76CDF80480686801280BD12868009A61
:10373000B0FBF6F134A0521CFCF7C4FD286800F57C
:103740007A7028606868022807D12868009AB0FB60
:10375000F6F12DA0521CFCF7B5FD6868032801D0D6
:10376000042843D1009AC2EBC20007EB80008368B3
:10377000002B3FD0A3F57A7383602868521CB0FBFE
:10378000F6F125A0FCF79EFD641E2BD10098C0EB3E
:10379000C00007EB80008068B8B10023424669464C
:1037A000E86801F0A7FE012809D022A0FCF78AFDF5
:1037B0000098C0EBC00007EB8000446912E000995C
:1037C00023A0491CFCF77EFDF2E728680122B0FB2C
:1037D000F6F124A0FCF776FD0023424601A9E86833
:1037E00001F088FE286800F57A702860304601F004
:1037F0009BFA98E728680322B0FBF6F1E9E700009E
:10380000C8000020000000205425643A2074617331
:103810006B256420200D0A005425643A20746173DE
:103820006B25642C2072656D61696E7320256420A0
:103830000D0A00004661696C656420746F20656E36
:103840007175657565207461736B2E200D0A00001B
:103850007461736B256420696E20616761696E2EE7
:10386000200D0A00542564207461736B256420695F
:103870007320656E642E200D0A00000010B5084C00
:103880000121204600F039F8012802D105A0FCF7FB
:1038900019FD2046BDE81040012100F02BB80000C2
:1038A0000004004054494D33CAE4B3F62E2E2E2EA8
:1038B0002E2E2E0D0A00000010B5084C01212046C6
:1038C00000F01BF8012802D105A0FCF7FBFC204604
:1038D000BDE81040012100F00DB80000000C0040D0
:1038E00054494D35CAE4B3F62E2E2E2E2E2E2E0D13
:1038F0000A000000C9430182704702460020138A73
:1039000092890B4202EA010202D0002A00D0012073
:103910007047000070B5154C40F22551204600F06C
:1039200035F800280ED0204600F0BEF8104AC1B28B
:103930001088030406D444044FF0000306D50A2976
:1039400001D0138070BD40F400400DE00D2909D076
:10395000C0F30D04074D401C80B229551080C728C4
:10396000EFD870BD40F48040108070BD0038014039
:1039700038000020160200200029818902D041F47D
:10398000005101E021F400518181704770B501F0D0
:103990001F0501260024C1F3421306FA05F2012B8C
:1039A0000FD0022B0FD0838A4FEA112100881342D7
:1039B00006FA01F600EA060001D000B10124204613
:1039C00070BD8389F0E7038AEEE710B5C1F34213B7
:1039D00001F01F040121A140012B07D0022B07D0C9
:1039E0001430002A026805D00A4304E00C30F8E7DE
:1039F0001030F6E78A43026010BD000030B504467F
:103A0000008A85B00D464CF6FF710840E9880143F5
:103A10002182A0894EF6F3110840A9882A89114312
:103A20006A8902431143A181A08A4FF6FF410840F1
:103A3000A9890143A1826846FFF722FC1948844204
:103A400001D1039800E00298A189090400EBC001AC
:103A500001EB0010296801D5490000E08900B0FBA6
:103A6000F1F06422B0FBF2F109010B096FF01805C7
:103A70006B4300EB8300A3891D044FF0320306D58E
:103A800003EBC000B0FBF2F000F0070005E003EB31
:103A90000010B0FBF2F000F00F000843208105B0E9
:103AA00030BD0000003801408088C0F30800704736
:103AB000FEE700001FB54F4FDFF83C814FF0FF3BA2
:103AC0004FF47A7910244DA0CDE900404FF42F76C1
:103AD00023466E2231469620FFF7D2FAD8F800101E
:103AE0008020B1FBF9F2CDE9004045460423314680
:103AF000FA20FFF7EFFA0024444E07E0C4EBC400BD
:103B000006EB8000806901F0A3FA641CA868844277
:103B1000F4D300244FF0010AA84618E057F8241007
:103B2000A1B9C4EBC40506EB85010268496891425E
:103B30000CD3039400235A4603A9D8F80C0001F0D3
:103B4000D9FC01281AD032A0FCF7BCFB641CD8F8C1
:103B5000081040468C42E1D30446C06800F04AFF9A
:103B600000283AD000235A4602A9E06801F0ACFBD5
:103B700001280BD02DA0FCF7A5FBA3E747F824A054
:103B800056F8251030A0FCF79DFBDFE70298411C9A
:103B90001DD0C0EBC00006EB80014A6956F820102A
:103BA0002DA0FCF78FFB0298C0EBC00006EB800055
:103BB000806901F08FF902984FF47A71C0EBC00070
:103BC00006EB80004069484301F0AEF87AE72068D0
:103BD00000F57A7020604846F6E7216826A001F5D6
:103BE0007A7121604C46B1FBF4F1FCF76BFB204687
:103BF000EAE70000E0010020000000206375727217
:103C0000656E742074696D6500000000C8000020B6
:103C10004661696C656420746F20656E71756575A9
:103C200065207461736B2E200D0A00004661696C7B
:103C3000656420746F2064657175657565207461B5
:103C4000736B2E200D0A00007461736B256420696C
:103C50006E2E200D0A0000007461736B25752067BD
:103C60006574732025752074696D6520736C6963B4
:103C700065730D0A00000000B5B1C7B0CAB1BCE45D
:103C8000C6AC2564200D0A007047000010B5042062
:103C9000FFF794FB0C480D490D4A0068B0FBF1F3A7
:103CA000B0FBF1F14FF47A70414313700120508062
:103CB0004FF0E020026942F00202026141610169B5
:103CC00041F00101016110BD1C00002040420F00C5
:103CD0003400002070B5044601F0B0FD01280CD07E
:103CE000094D6888844203D3B4FBF0F001F01CF85E
:103CF0006888B4FBF0F100FB11444FF47A70604324
:103D0000BDE8704000F002B83400002070B54FF0FC
:103D1000E02500216C69094AAB6912785043AA6911
:103D20009A42FCD002D2A3EB020302E0A4EB02060B
:103D30003344194413468142F1D370BD340000204E
:103D400004490A885206FCD5024AC1B2121D1180EC
:103D500070470000003801407CB54FF44070FFF719
:103D60006BFAFFF793FF4FF4E13000F0E1FDFFF74E
:103D700007FAFDF7D5F838494FF47840302308802A
:103D800036A11820CDE900014FF496720A211E20B9
:103D9000FFF776F9344D0224344801216C60CDE9F7
:103DA00000100023822232A1334801F01BFD2F486E
:103DB00000231C30CDE90040822230A1314801F0BF
:103DC00011FD2A4803213830CDE90010002382225A
:103DD0002DA12F4801F006FD6868012807D0E41ED8
:103DE00002280FD0032817D0042827D022E0FCF7A0
:103DF000B7FE002029690346CDE90001822225A1F2
:103E00002C4815E0FCF7ACFE68690023CDE90040C2
:103E1000822229A12C480BE0FCF7CAFE10E0FCF737
:103E200051FAA8690023CDE90040822227A12F483A
:103E300001F0D8FC01F0C2F800207CBDFCF7E2FEE6
:103E4000002204210A2001F003FAE86008B128A04A
:103E5000E5E72EA0E3E700003000002052544F5366
:103E6000205445535400000000000020E0000020D2
:103E70005461736B31000000393400085461736B76
:103E8000320000009D3500085461736B3300000060
:103E90000D370008507265656D70746976655F5006
:103EA00072696F726974795F5363686564756C6574
:103EB000720000004D3200084544465F5363686558
:103EC00064756C6572000000D1070008576569676A
:103ED000687465645F526F756E645F526F62696E7D
:103EE0005F5363686564756C65720000B53A0008DD
:103EF0005175657565206372656174696F6E2073B5
:103F00007563636573736564210D0A00517565758A
:103F100065206372656174696F6E206661696C65A6
:103F200064210D0A000000002DE9F041184E0F46F3
:103F30000446F5683068001D00F04AFD38B9306865
:103F400090F82C1001208840316981433161601C58
:103F500007D137B13168BDE8F0410E48091D00F0C6
:103F600091BD30682C44AC424460316805D2B06BDE
:103F7000BDE8F041091D00F06DBD706B091D00F03A
:103F800069FDB06A844200D2B462BDE8F0810000ED
:103F900054000020F00500202DE9F041054600F016
:103FA0007DFD2D4EB068401CB06030682B4F10B1C5
:103FB000706930B32BE03560B068012827D1002448
:103FC00004EB840007EB800000F036FD641C202C1D
:103FD000F6D3234800F030FD2148143000F02CFDCA
:103FE0001F48283000F028FD1D483C3000F024FD1B
:103FF0001B48503000F020FD194870631430B06346
:1040000005E03068E96AC06A884200D83560706AA5
:104010000121401C70626864E86A32698140114382
:10402000316100EB800007EB8000291D00F02AFDC4
:1040300000F070FD706900280CD03068E96AC06A31
:10404000884207D207494FF080500860BFF34F8F76
:10405000BFF36F8FBDE8F0815400002020030020E3
:10406000A005002004ED00E010B500F017FD0E4C97
:104070002068A0B90D4800F0DFFC0C48143000F0B7
:10408000DBFC0A48E060143020610022102105208A
:1040900001F0DEF8206010B105A100F011FEBDE8CE
:1040A000104000F037BD0000900000200406002002
:1040B000546D72510000000070B5124E124D1CE09C
:1040C00001F02EF8306820B1002401F0E5FCA4B91D
:1040D00001E00124F9E700F0E1FCF068C468201D6C
:1040E00000F076FCA868401EA8606868401E686002
:1040F00000F010FD204600F052F868680028DFD17B
:1041000070BD0000DC0500205400002030B4026CBB
:104110000B46002A0BD0C1681144C1604468A1421B
:1041200001D30168C16030BC1846FCF7B1B930BC9E
:1041300070472DE9F041856B174604460026026C56
:1041400082B1C7B1E068FCF7A3F9E168206C091AF5
:10415000E1602268914202D26168081AE060022F91
:1041600016D017E02068A8B9606801F0EFFB06469A
:10417000002060600EE0A068FCF78AF9216CA0685E
:104180000844A0606168884204D32068A06001E010
:1041900005B16D1E6D1CA5633046BDE8F08110B5FC
:1041A0000446006B00F0E8FC2046BDE8104000F03B
:1041B000E3BC000010484FF4A041420706D0C01DE8
:1041C0000D4920F00700411AC1F5A0410B4A002318
:1041D0000144C2E900030839103A21F007011160D7
:1041E0004B600B600B1AC0E9001393604FF0004066
:1041F0005360D060704700002C060020B4000020FF
:10420000074E4FF08054074DFFF756FF30680128E6
:10421000FAD92C60BFF34F8FBFF36F8FF4E7000024
:104220002003002004ED00E02DE9F047DDE90984DA
:104230000E461746824691009946089DA522206B9E
:10424000FCF76BF96FF00301206B01EB8701084469
:1042500020F00707780705D040F22B3219A11EA0E5
:10426000FCF730F800202218315C82F83410315C01
:1042700011B1401C1028F6D3002684F84360202D8D
:1042800000D31F25E562C4E91356201D00F0DFFBB3
:1042900004F1180000F0DBFB2461C5F1200064622A
:1042A000A061666584F858604A465146384600F079
:1042B0002DFB2060B8F1000F01D0C8F80040BDE828
:1042C000F08700002E2E5C4672656552544F535C99
:1042D0007461736B732E63004572726F723A25734B
:1042E0002C25640D0A00000030B5114900E011468C
:1042F0000A688242FBD34B685C18844203D1406851
:1043000018444860084643681C18944209D1084C78
:10431000103C2468A24209D052681A4442600A68DC
:1043200012680260814200D0086030BD0460F9E785
:10433000B400002070B5002441600B4D0061914233
:1043400006D8D11A8269914206D2011D286907E078
:104350009A4203D2994201D3012403E0011DE86887
:1043600000F078FB204670BD9000002010B5044698
:1043700000F094FBA06B20B1002400F0CBFB2046A2
:1043800010BD0124F9E700002DE9F34100980F4624
:104390000026846C2CB940F6CE1216A11AA0FBF7A9
:1043A00091FFA06BE16B884205D340F6CF1211A1BB
:1043B00015A0FBF787FFA06BE16B88420CD294F944
:1043C00045503A4669462046FFF7B3FE0646681C4C
:1043D00005D06D1C84F845503046BDE8FC81606A0C
:1043E0000028F9D004F1240001F00AFB0028F3D0E2
:1043F0000126F1E72E2E5C4672656552544F535CE0
:1044000071756575652E63004572726F723A25731A
:104410002C25640D0A000000F8B5054614480E4628
:10442000C068C068C468201D00F0D2FAE0690128A5
:1044300017D1A0692B46411932462046FFF77AFF73
:1044400078B100200346014600902A46204601F03C
:1044500009FC30B907494FF4027201F11800FBF76B
:1044600031FF616A01B02046BDE8F0400847000016
:1044700090000020C85B000870B586B02F4E53E056
:104480000198002806DADDE90301029A90470198B5
:10449000002849DB039C606910B1201D00F098FAE8
:1044A00005A800F0A7F8054601980A283CD2DFE8E5
:1044B00000F00505053B273805053B270298A16953
:1044C000034601442A462046FFF734FF00282BD03C
:1044D000616A20468847E069012825D100200090C4
:1044E0000298A169002342181946204601F0BAFB40
:1044F000D0B940F2213212A117A0FBF7E3FE13E07E
:104500000298A06128B94FF44E720DA112A0FBF7DA
:10451000D9FEA0692B4641191A462046FFF70AFF2B
:1045200002E0204600F028FB00231A4601A930686B
:1045300000F0CAFE0028A3D106B070BD9000002094
:104540002E2E5C4672656552544F535C74696D65DE
:1045500072732E63000000004572726F723A257309
:104560002C25640D0A000000F8B50D46064600F043
:10457000D7FD684600F03EF80446009810B101F0FF
:104580008BFAF8BD1148ADB101690968D9B10025B0
:10459000311B2A46006800F0A5FB01F07DFA0028D7
:1045A000EFD10B494FF080500860BFF34F8FBFF33E
:1045B0006F8FF8BDA642EBD801F06EFA2146304667
:1045C000FFF72AFFF8BD0125E2E700009000002078
:1045D00004ED00E00648416B096829B1416BC968E8
:1045E000C9684968816270474FF0FF31FAE70000FF
:1045F0005400002070B5054601F02EF9064E044621
:10460000B068844203D200F009F8012000E00020E5
:1046100028602046B46070BD90000020F8B5184EA8
:1046200026E0C068C4680568201D00F0D1F9616A01
:1046300020468847E06901281AD1A0692844A84289
:1046400006D924616060211DF06800F003FA0FE0D4
:1046500000200346014600902A46204601F002FB56
:1046600030B9084940F2923201F11800FBF72AFEF6
:10467000F06801680029D4D13169C6E90310F8BD9A
:1046800090000020C85B000808484068401C04D027
:10469000F42207A111A0FBF715FE502080F311882A
:1046A000BFF34F8FBFF36F8FFEE70000BC00002009
:1046B0002E2E5C4672656552544F535C706F727457
:1046C00061626C655C525644535C41524D5F434D90
:1046D000335C706F72742E63000000004572726F5D
:1046E000723A25732C25640D0A00000070B5002570
:1046F000040005D140F2816207A10CA0FBF7E2FDA6
:104700000E496069884205D1A06A2839884201D0E3
:1047100000B90125284670BD2E2E5C467265655293
:10472000544F535C7461736B732E63004572726FE8
:10473000723A25732C25640D0A000000F005002054
:10474000084CE068016839B1002139B10020FFF759
:104750000BFFFFF791FEF4E70121F6E7C068006860
:10476000F5E70000900000202DE9F041044600F03C
:1047700095F994F9455004F1240610E0A06C20B19D
:1047800000212046FFF700FE04E0606A48B1304691
:1047900001F036F908B100F0FDFA6D1E6DB2002D82
:1047A000ECDC4FF0FF3684F8456000F0B3F900F020
:1047B00075F994F9445004F1100709E0206948B1F3
:1047C000384601F01DF908B100F0E4FA6D1E6DB233
:1047D000002DF3DC84F84460BDE8F04100F09AB9A4
:1047E0002DE9F0410546002600F09AFC324F38686A
:1047F00008B9FFF7DFFCF86805424FD1002D4DD016
:10480000083568070BD005F00700C0F10800054423
:10481000680704D0BF2229A132A0FBF753FD002D69
:104820003CD07868854239D823491031084604685D
:1048300001E0214604466068A84202D220680028B0
:10484000F7D13868B846844228D00E6820680860DE
:1048500060680836401B10280ED96719780704D005
:10486000EC2216A11FA0FBF72DFD6068401B7860AD
:1048700038466560FFF738FD6168D8F804004246A5
:10488000401AC8F80400D8F80830984200D2906066
:10489000D8F80C0001430020C4E9000101F0FCF845
:1048A000700705D04FF4967204A10EA0FBF70AFD25
:1048B0003046BDE8F0810000A40000202E2E5C46AA
:1048C00072656552544F535C706F727461626C65AF
:1048D0005C4D656D4D616E675C686561705F342E1F
:1048E000630000004572726F723A25732C25640DC7
:1048F0000A0000000449086818B10868026D521CDB
:1049000002650868704700005400002010B5031FBE
:104910004FF080741C601B1F21F001011960191FEA
:10492000024B0B60143940380A6010BD89460008FC
:1049300070B5054686B0012144F20400FEF794FCF0
:104940004FF40070ADF8100003248DF812401820C9
:104950001D4E8DF8130004A93046FCF78DF8301574
:10496000ADF8100004208DF8130004A93046FCF7C0
:1049700083F825208DF814008DF815408DF8164029
:1049800001208DF8170005A8FEF724FC0020ADF8E3
:104990000400ADF80600ADF80800ADF80C000C20DE
:1049A0000A4CADF80A00009569462046FFF726F844
:1049B000012240F225512046FFF707F80121204649
:1049C000FEF7DAFF06B070BD000801400038014074
:1049D000D0E9013201699A60D0E901235A604A683E
:1049E000824201D182684A60002202610868401E4A
:1049F0000860704710B5040005D140F22F6205A190
:104A000009A0FBF75FFC00F049F8A46B00F082F806
:104A1000204610BD2E2E5C4672656552544F535C85
:104A200071756575652E63004572726F723A2573F4
:104A30002C25640D0A00000000F108014FF0FF3240
:104A4000C0E90112C16001610021016070470021CD
:104A50000161704730B50C68621C02D000F1080299
:104A600002E0026904E01A4653681D68A542FAD9BB
:104A700053684B6099608A60516008610168491C05
:104A8000016030BD42684A6093688B6093685960EA
:104A9000916008610168491C01607047502080F3F3
:104AA0001188BFF34F8FBFF36F8F09494868401CCF
:104AB000486001280AD10748006810F0FF0F05D0B0
:104AC0004FF4BD7204A10FA0FBF7FCBB70470000C0
:104AD000BC00002004ED00E02E2E5C46726565529D
:104AE000544F535C706F727461626C655C525644D3
:104AF000535C41524D5F434D335C706F72742E6353
:104B0000000000004572726F723A25732C25640D07
:104B10000A00000010B5084C606828B940F2811204
:104B200006A111A0FBF7CEFB6068401E606001D1BA
:104B300080F3118810BD0000BC0000202E2E5C46C2
:104B400072656552544F535C706F727461626C652C
:104B50005C525644535C41524D5F434D335C706F21
:104B600072742E63000000004572726F723A2573F2
:104B70002C25640D0A00000070B500282AD0164DBF
:104B8000A0F108046068E968084205D14FF4A072FA
:104B900012A11CA0FBF796FB206828B140F241123D
:104BA0000EA118A0FBF78EFB6068E968084211D0DF
:104BB0002268002A0ED18843606000F0B1FA606874
:104BC0006968084468602046FFF78EFBBDE87040C6
:104BD00000F062BF70BD0000A40000202E2E5C46D5
:104BE00072656552544F535C706F727461626C658C
:104BF0005C4D656D4D616E675C686561705F342EFC
:104C0000630000004572726F723A25732C25640DA3
:104C10000A00000006484FF47A710068B0FBF1F119
:104C20004FF0E020491E41610721016170470000FB
:104C30001C00002010B5FBF71FFB104C10280CD3F4
:104C400000F1E02090F8F0032178884205D24FF47B
:104C50002A720BA115A0FBF735FB18480068A16864
:104C600000F4E060884207D9BDE810404FF42E728E
:104C700003A10EA0FBF726BB10BD0000BC00002066
:104C80002E2E5C4672656552544F535C706F727481
:104C900061626C655C525644535C41524D5F434DBA
:104CA000335C706F72742E63000000004572726F87
:104CB000723A25732C25640D0A0000000CED00E00B
:104CC00010B5074B002253F832401CB1521C082A81
:104CD000F9D310BD43F8321003EBC201486010BD98
:104CE000E002002070B515460E460446FFF7D6FEDA
:104CF00094F944100020491C01D184F8440094F92F
:104D00004510491C01D184F84500FFF703FFA06B53
:104D100028B92A46314604F1240000F06BF82046F9
:104D2000BDE87040FFF720BD10B5040012D00E4959
:104D3000096B29B140F2CF420CA111A0FBF7C2FAD6
:104D400000F0EEF900212046FFF7EEF800F0A4FE97
:104D5000002807D10E494FF080500860BFF34F8FF5
:104D6000BFF36F8F10BD0000540000202E2E5C4654
:104D700072656552544F535C7461736B732E63009C
:104D80004572726F723A25732C25640D0A0000007B
:104D900004ED00E001490120C86170475400002083
:104DA00070B50D46040005D140F6063207A10CA0EF
:104DB000FBF788FA0E48016820461831FFF74AFED3
:104DC0002846BDE870400121FFF7AEB82E2E5C46A4
:104DD00072656552544F535C7461736B732E63003C
:104DE0004572726F723A25732C25640D0A0000001B
:104DF0005400002070B514460E46050005D140F65B
:104E0000313209A10DA0FBF75DFA10480168284670
:104E10001831FFF737FE0CB14FF0FF362146304610
:104E2000BDE87040FFF780B82E2E5C467265655273
:104E3000544F535C7461736B732E63004572726FD1
:104E4000723A25732C25640D0A00000054000020DE
:104E500070B5040039D01D4DE06A2968C96A8842DE
:104E600033D2A069002804DB2868C06AC0F12000A2
:104E7000A061E06A164E00EB8000616906EB8000DD
:104E800081421FD1201DFFF7A3FD012150B9E06A27
:104E900000EB800256F8222022B92A6901FA00F0BC
:104EA00082432A612868C06AE0622A69814011430E
:104EB000296100EB800006EB8000211DBDE87040F9
:104EC000FFF7E0BD2868C06AE06270BD54000020B2
:104ED0002003002070B504002BD01A4D28688442AE
:104EE0002FD0FFF7DBFD2046FFF700FCE8B1201DC7
:104EF000FFF76EFDE06A01212A69814011432961B3
:104F0000114900EB800001EB8000211DFFF7BAFD85
:104F1000E06A2968C96A884207D30C494FF080507B
:104F20000860BFF34F8FBFF36F8FBDE87040FFF78E
:104F3000F1BDBDE8704040F2AB6205A109A0FBF7EE
:104F4000C1B970BD540000202003002004ED00E032
:104F50002E2E5C4672656552544F535C7461736BC0
:104F6000732E63004572726F723A25732C25640D9F
:104F70000A00000010B5040005D140F6C13205A1B9
:104F800009A0FBF79FF90C48016A2160C0686060C6
:104F900010BD00002E2E5C4672656552544F535C66
:104FA0007461736B732E63004572726F723A25736E
:104FB0002C25640D0A000000540000201CB5174881
:104FC0000024CDE900402346822215A1164800F0B6
:104FD00009FC012803D100F00BFE01280AD0401C77
:104FE0001BD102B040F28472BDE810400FA114A0A2
:104FF000FBF768B9502080F31188BFF34F8FBFF3E0
:105000006F8F06484FF0FF312C38816201214161DA
:10501000C460BDE81C4000F0C9B81CBD8000002081
:1050200049444C4500000000014200082E2E5C4619
:1050300072656552544F535C7461736B732E6300D9
:105040004572726F723A25732C25640D0A000000B8
:1050500070B50446FFF722FD244D04B92C68201DCD
:10506000FFF7B6FC58B9E06A214A00EB800152F81C
:10507000211021B901218140286988432861A06A53
:1050800018B104F11800FFF7A3FC211D1948FFF720
:10509000F9FCFFF73FFD686928B1FFF7FFFCFFF758
:1050A00099FAFFF737FD2868844211D1686980B109
:1050B000286B28B140F257620FA114A0FBF702F948
:1050C00016494FF080500860BFF34F8FBFF36F8FCA
:1050D00070BD0848A9680068884202D10020286095
:1050E00070BDBDE8704000F023B8000054000020FF
:1050F00020030020F00500202E2E5C4672656552CC
:10510000544F535C7461736B732E63004572726FFE
:10511000723A25732C25640D0A00000004ED00E0AE
:105120000248016B491C01637047000054000020D5
:1051300070B5134D286B10B10120E86170BD0020DF
:10514000E86128690F4EB0FA80F0C0F11F0000EB53
:10515000800456F8240028B940F6F6220AA10FA0D0
:10516000FBF7B0F806EB840000F1080241684968DB
:105170004160914201D149684160C868286070BDB2
:1051800054000020200300202E2E5C4672656552DC
:10519000544F535C7461736B732E63004572726F6E
:1051A000723A25732C25640D0A0000001CB51A49BB
:1051B00008780190FF20087008788DF800009DF8AD
:1051C0000000164A00F0500010700720906007E0C1
:1051D0009068401E90609DF8000040008DF800002F
:1051E0009DF800000006F3D4107A000200F4E0609D
:1051F0009060019808700A48016841F470010160EC
:10520000016841F070410160FFF704FD002050602B
:10521000FAF7FCFF00201CBD00E400E0BC00002009
:1052200020ED00E010B5502080F31188BFF34F8FC0
:10523000BFF36F8F00F016FB18B104494FF0805098
:105240000860002080F3118810BD000004ED00E02C
:105250002DE9F04117460E46050005D14FF4C47202
:1052600010A115A0FBF72EF8BEB105FB06F05430D7
:10527000FFF7B6FA04000ED004F154007EB12060AE
:10528000C4E90F562046012100F0E0F884F8507080
:1052900000212046A164BDE8F0810020E7E72460FA
:1052A000EEE700002E2E5C4672656552544F535C4B
:1052B00071756575652E63004572726F723A25735C
:1052C0002C25640D0A0000002DE9FF4F83B09B469A
:1052D0008A4604004FF0000605D140F2DC4251A19D
:1052E00055A0FAF7EFFFBAF1000F07D1206C28B1F3
:1052F00040F2DD424BA150A0FAF7E4FF00F09EFA25
:1053000038B9059828B14FF49C6246A14AA0FAF733
:10531000D9FF4FF000094FF08057DFF82C81FFF7DD
:10532000BDFBA56B45B351462046E668FEF7EEFE91
:10533000BBF1000F13D0E660606A50B104F12400A5
:1053400000F05EFB28B1C8F80070BFF34F8FBFF3C9
:105350006F8FFFF7DFFB012007B0BDE8F08F6D1EF8
:10536000A563206810B9FFF7C5FA606020690028BE
:10537000EFD004F11000E3E7059808B11EB106E094
:10538000FFF7C8FB27E06846FFF7F4FD0126FFF7AB
:10539000C1FBFFF7C5FEFFF781FB94F94400401CF9
:1053A00001D184F8449094F94500401C01D184F85F
:1053B0004590FFF7AFFB05A9684600F0CFF900283C
:1053C00020460AD0FFF7D0F900F066FB2046FEF732
:1053D000CDFF0028A3D00020BEE7FEF7C7FFD8B15D
:1053E000206830B9FFF75AFB6068FFF731FDFFF71F
:1053F00091FB04F124000599FFF7D2FC2046FFF74A
:10540000B3F900F049FB002889D1C8F80070BFF358
:105410004F8FBFF36F8F82E72046FFF7A5F900F0AB
:105420003BFB7CE72E2E5C4672656552544F535C05
:1054300071756575652E63004572726F723A2573DA
:105440002C25640D0A00000004ED00E070B50D4647
:10545000040005D140F21B121CA121A0FAF732FF73
:10546000FFF71CFBD4E90F20216802FB00116160EB
:105470000021A1632168A1600A46D4E90F01401E02
:1054800000FB0121E16021464FF0FF3001F8440F9D
:10549000487004F110004DB1FFF7CEFA04F124007A
:1054A000FFF7CAFAFFF736FB012070BD216900291A
:1054B000F8D000F0A5FA0028F4D00D494FF0805044
:1054C0000860BFF34F8FBFF36F8FEBE72E2E5C4664
:1054D00072656552544F535C71756575652E630036
:1054E0004572726F723A25732C25640D0A00000014
:1054F00004ED00E02DE9FF4F83B099468B46040090
:105500004FF0000605D140F2D92252A156A0FAF779
:10551000D9FEBBF1000F07D1206C28B140F2DA228E
:105520004CA151A0FAF7CEFEB9F1020F08D1E06B01
:10553000012805D040F2DB2246A14BA0FAF7C2FEBB
:1055400000F07CF938B9059828B140F2DE2241A17B
:1055500045A0FAF7B7FE4FF0000A4FF08057DFF88A
:105560001881FFF79BFAA06BE16B884206D3B9F173
:10557000020F03D0059800B316B325E04A465946FA
:105580002046FEF7D6FDA16C21B149462046FEF724
:10559000FBFE05E0616A19B104F1240000F030FA65
:1055A00028B1C8F80070BFF34F8FBFF36F8FFFF7BC
:1055B000B1FA012007B0BDE8F08FFFF7ABFA21E0A8
:1055C0006846FFF7D7FC0126FFF7A4FAFFF7A8FD0E
:1055D000FFF764FA94F94400401C01D184F844A018
:1055E00094F94500401C01D184F845A0FFF792FAD8
:1055F00005A9684600F0B2F830B12046FFF7B4F8CC
:1056000000F04AFA0020D5E7FFF748FAA06BE16BFB
:10561000884201D1012500E00025FFF77BFA95B112
:1056200004F110000599FFF7BBFB2046FFF79CF83B
:1056300000F032FA002894D1C8F80070BFF34F8F01
:10564000BFF36F8F8DE72046FFF78EF800F024FA46
:1056500087E700002E2E5C4672656552544F535CFE
:1056600071756575652E63004572726F723A2573A8
:105670002C25640D0A00000004ED00E02DE9F04740
:10568000984615468946040005D140F29F322AA16A
:105690002EA0FAF717FEB9F1000F07D1206C28B140
:1056A0004FF4687224A129A0FAF70CFEB8F1020F9A
:1056B00008D1E06B012805D040F2A1321EA123A041
:1056C000FAF700FEFFF7B6FA5020EFF3118780F3E8
:1056D0001188BFF34F8FBFF36F8FA06BE16B8842D0
:1056E00007D3B8F1020F04D0002087F31188BDE87A
:1056F000F08794F94560424649462046FEF719FD79
:10570000701C04D0761C84F845600120EDE7A06C85
:10571000012620B141462046FEF736FE06E0606ACB
:105720000028F2D004F1240000F06AF90028ECD03F
:10573000002DEAD02E60E8E72E2E5C467265655299
:10574000544F535C71756575652E63004572726FB9
:10575000723A25732C25640D0A00000070B50D46C1
:10576000040005D140F6CB3214A119A0FAF7AAFD26
:105770002DB940F6CC3211A115A0FAF7A3FDFFF721
:105780008DF9174AD06829684B1C0FD02368126A1C
:10579000934202D0626882420AD96268801A8842C3
:1057A00006D2081A28602046FFF7E4FB002400E038
:1057B0000124FFF7AFF9204670BD00002E2E5C4695
:1057C00072656552544F535C7461736B732E630042
:1057D0004572726F723A25732C25640D0A00000021
:1057E000540000202DE9FF5F8346DDE90E879946CE
:1057F00016468A469000FEF7F3FF05001AD05C209B
:10580000FEF7EEFF040012D025630021CDE902412E
:10581000CDE900874B46324651465846FEF704FD17
:105820002046FEF7B9FB012004B0BDE8F09F2846F2
:10583000FFF7A2F94FF0FF30F6E700000548416995
:1058400019B1006B18B10020704701207047022089
:1058500070470000540000200148C06870470000F5
:10586000540000202DE9F0412D4F0026386B40B147
:10587000B869401CB861F86900B101263046BDE83E
:10588000F081FD686D1CFD6011D1786B006828B156
:1058900040F6D91223A128A0FAF714FD786BB96B52
:1058A0007963B863386A401C3862FEF793FEB86AC1
:1058B000DFF89480854209D3786B006880B1786BFB
:1058C000C068C468606885420DD2B8623868C06A32
:1058D00000EB800158F821000128CCD90126CAE745
:1058E0004FF0FF30F1E7201DFFF772F8A06A18B102
:1058F00004F11800FFF76CF8E06A01213A69814071
:105900001143396100EB800108EB8100211DFFF795
:10591000B9F8E06A3968C96A8842CDD30126CBE775
:10592000540000202E2E5C4672656552544F535C25
:105930007461736B732E63004572726F723A2573D4
:105940002C25640D0A0000002003002070B504001F
:105950004FF000063CD01F4D2868844205D040F629
:10596000C7621DA121A0FAF7ADFC206D28B940F651
:10597000C96219A11DA0FAF7A5FC206D401E206583
:10598000E26CE16A914223D010BB201DFFF720F8A2
:105990001A49012250B9E06A00EB800351F8233024
:1059A00023B92B6902FA00F083432B61E06CE062BB
:1059B000C0F12000A061E06A2B6982401A432A618D
:1059C00000EB800001EB8000211DFFF75BF8012652
:1059D000304670BD540000202E2E5C467265655224
:1059E000544F535C7461736B732E63004572726F16
:1059F000723A25732C25640D0A0000002003002054
:105A00002DE9F041C068C4682CB940F6613216A196
:105A10001AA0FAF757FC04F118000746FEF7D8FF62
:105A20001A4D286B012660B139461948FFF72AF84C
:105A3000E06A2968C96A884213D90120EE61BDE88D
:105A4000F081201DFEF7C4FFE06A2A6906FA00F122
:105A5000114329610F4900EB800001EB8000211DFB
:105A6000E4E70020EBE700002E2E5C4672656552ED
:105A7000544F535C7461736B732E63004572726F85
:105A8000723A25732C25640D0A0000005400002092
:105A9000C8050020200300202DE9F0472B4D0024ED
:105AA0002746286B28B94FF4FD6229A12DA0FAF7EB
:105AB00009FCFEF7F3FF286B401E2863286BE8BB48
:105AC000A8682C490126C8B3A1F52A798846D8F8D8
:105AD0000010E9B1D8F80C00C46804F11800FEF712
