:020000040800F2
:10000000605C00207902000823310008550B0008CD
:1000100021310008C50700080D3600080000000067
:10002000000000000000000000000000E1010008E6
:10003000C70700080000000025020008213300085F
:10004000930200089302000893020008930200083C
:10005000930200089302000893020008930200082C
:10006000930200089302000893020008930200081C
:10007000930200089302000893020008930200080C
:1000800093020008930200089302000893020008FC
:1000900093020008930200089302000893020008EC
:1000A00093020008930200089302000893020008DC
:1000B00093020008D9330008930200089302000855
:1000C00093020008930200089302000893020008BC
:1000D000930200087134000893020008930200089C
:1000E000930200089302000893020008930200089C
:1000F000930200089302000893020008930200088C
:1001000093020008930200081534000893020008C7
:10011000930200089302000893020008930200086B
:10012000930200089302000893020008930200085B
:1001300000F002F800F045F80AA090E8000C8244B4
:100140008344AAF10107DA4501D100F03AF8AFF291
:10015000090EBAE80F0013F0010F18BFFB1A43F0A5
:1001600001031847546E0000746E0000103A24BF5B
:1001700078C878C1FAD8520724BF30C830C144BF0C
:1001800004680C607047000000230024002500264E
:10019000103A28BF78C1FBD8520728BF30C148BFEA
:1001A0000B607047642900F00781782900F04081D6
:1001B000732900F04282002070471FB51FBD10B5A3
:1001C00010BD00F0D0FA1146FFF7F7FF03F086FAF2
:1001D00000F0EEFA03B4FFF7F2FF03BC03F017FAE6
:1001E000224B19680868B0E8F00F80F30988BFF364
:1001F0006F8F4FF0000080F311884EF00D0E7047A6
:100200000000000006480068006880F3088862B6B5
:1002100061B6BFF34F8FBFF36F8F00DF00BF00BF2A
:1002200008ED00E0EFF30980BFF36F8F0F4B1A6802
:1002300020E9F00F106008B54FF0500080F31188EE
:10024000BFF34F8FBFF36F8F04F0A2FB4FF000009E
:1002500080F31188BDE8084019680868B0E8F00F1D
:1002600080F30988BFF36F8F704700BF4C000020F8
:10027000EFF30580704700000948804709480047B0
:10028000FEE7FEE7FEE7FEE7FEE7FEE7FEE7FEE746
:10029000FEE7FEE704480549054A064B70470000A3
:1002A000353300083101000860560020605C0020F2
:1002B0006058002060580020704700000FB40449C7
:1002C00010B503AA029800F0BDF910BC5DF814FB4C
:1002D000340000200FB41CB5074B06AA7B446946C6
:1002E0000090059800F07FF90020694600F08EF933
:1002F0001CBC5DF814FB00002D0300002DE9F0414B
:100300000E460446002020622046E168884730B34C
:10031000252805D0D4E901219047206A401CF2E746
:10032000E168204600278847050018D0A5F1410064
:10033000192802D820354FF4006732462946204656
:100340002760FFF72FFF40B1012804D0F61D26F0EB
:1003500007060836D8E7361DD6E72846DAE7206ACA
:10036000BDE8F08170B50C460546012A05D0287815
:10037000800600D5EA69002302E0012305E05B1C4A
:10038000934202D2E05C0028F9D1A869E618C01AAD
:10039000A861286A184428622846AFF3008004E068
:1003A000D5E9012114F8010B9047B442F8D328464F
:1003B000AFF3008070BD00002DE9F0410646002437
:1003C00010687529314616A510D0AFF300800028BB
:1003D00002DA404213A507E031688A0701D512A569
:1003E00002E0490704D511A5012401E0AFF3008024
:1003F00000210A2206F1240709E0B0FBF2FCB0FB61
:10040000F2F302FB1C00303078541846491C0028D7
:10041000F3D123462A463046BDE8F04100F085B8C6
:10042000000000002D0000002B0000002000000054
:1004300070B504460D4621461068AFF30080218850
:10044000090502D50F4A7A4402E00E4A7A440E3278
:10045000002104F1240305E000F00F060009965D79
:100460005E54491C0028F7D120780023000704D5EA
:10047000702D02D009B1022311322046BDE8704030
:1004800000F053B8466B0000032A40F2308010F0B1
:10049000030C00F0158011F8013BBCF1020F62441F
:1004A00098BF11F801CB00F8013B38BF11F8013BB0
:1004B000A2F1040298BF00F801CB38BF00F8013B5D
:1004C00011F0030300F0D080083AC0F0088051F822
:1004D000043B083A51F804CBA0E80810F5E7121DD8
:1004E0005CBF51F8043B40F8043BAFF30080D207F7
:1004F00024BF11F8013B11F801CB48BF11F8012BC3
:1005000024BF00F8013B00F801CB48BF00F8012BE5
:10051000704702F0FF0343EA032242EA024200F07E
:10052000D7B870477047704770472DE9F0470D46C0
:1005300099469246044600F124080168880604D5CD
:10054000E06921F01001216000E00120A84201DDF6
:10055000471B00E00027A1697A1902EB0900081A7D
:10056000A0612078C00602D42046AFF300800026A8
:1005700008E0D4E901211AF806009047206A401CDF
:10058000761C20624E45F4DB2078C0060AD5204652
:10059000AFF3008006E0D4E9012130209047206AC3
:1005A000401C2062381EA7F10107F4DC07E0D4E903
:1005B000012118F805009047206A401C2062281E7F
:1005C000A5F10105F3DC2046AFF30080207800069A
:1005D00002D50220BDE8F0870120FBE701694A1C33
:1005E00002610878704700B58FB0CDE90131002174
:1005F000059105497944CDE9031011466846FFF796
:100600007DFE0FB000BD0000E5FFFFFF0A6802F8A5
:10061000010B0A60704710B5436913B1AFF3008056
:1006200001E0FFF79FFE012010BD127800F12401C8
:100630000A7000224A700122EDE711684FF0FF3284
:10064000E9E70000074B70B50D467B44FFF7CBFF91
:100650000446284600F05CF810B14FF0FF3070BD42
:10066000204670BD7730000010B5203AC0F00B80F6
:10067000B1E81850203AA0E81850B1E81850A0E8A6
:100680001850BFF4F5AF5FEA027C24BFB1E8185000
:10069000A0E8185044BF18C918C0BDE810405FEA70
:1006A000827C24BF51F8043B40F8043B08BF7047EC
:1006B000D20728BF31F8023B48BF11F8012B28BFF1
:1006C00020F8023B48BF00F8012B70474FF00002B2
:1006D0000429C0F0128010F0030C00F01F80CCF150
:1006E000040CBCF1020F18BF00F8012BA8BF20F8C2
:1006F000022BA1EB0C0100F011B85FEAC17C24BF12
:1007000000F8012B00F8012B48BF00F8012B7047BF
:10071000007B00F0800070474FF0000200B51346E8
:1007200094469646203922BFA0E80C50A0E80C5011
:10073000B1F12001BFF4F7AF090728BFA0E80C50C2
:1007400048BF0CC05DF804EB890028BF40F8042BBB
:1007500008BF704748BF20F8022B11F0804F18BF28
:1007600000F8012B7047754600F028F8AE460500EA
:100770006946534620F00700854618B020B5FFF7BC
:1007800089FDBDE820404FF000064FF000074FF014
:1007900000084FF0000B21F00701AC46ACE8C0099F
:1007A000ACE8C009ACE8C009ACE8C0098D467047A8
:1007B0000446AFF300802046FFF70CFD0048704769
:1007C000FC550020FEE7704786B04FF010084FF050
:1007D000720A4FF0060B5B4F00F09AF905460026AF
:1007E000594C07E0C6EBC60004EB8000806904F0BA
:1007F0005FF8761C78688642F4D354A0FFF75EFD5C
:1008000056A0CDE90080464610236E224FF42F718A
:10081000962002F0DDFB39684FF47A70B1FBF0F2FC
:100820004FF08009CDE9006904234FF42F71FA20BD
:1008300002F0F8FB4DA0CDE9006010236E224FF4CA
:100840002F714FF4967002F0C3FBCDE900690823C5
:100850004FF42F714FF4C8702A6802F0E3FB002DAB
:1008600061D0002079680EE0C0EBC00204EB820288
:10087000AA4207D1C0EBC00004EB8000806903F0FE
:1008800059FF02E0401C8842EED33C490020044658
:10089000088038E0C4EB041000EB8006732000EB06
:1008A000460082B2052000EB460080B24FF49D73F3
:1008B0006E2100F047FA621C31A102A8FFF70AFD81
:1008C00002A9CDE90081282000EB460080B2102368
:1008D0003C224FF4AF7102F07BFB2968601C81421F
:1008E00002D14FF4784001E04FF6FF7000900AEB20
:1008F000460082B20BEB460080B240F239136F2102
:1009000000F092FA641C78688442C3D3A868A0F50A
:100910007A70A8600DE0C5EBC50004EB800080692B
:1009200003F0C6FF6D1C78688542F4D3F86803F0C5
:10093000BFFF386800F57A7038604FF47A7003F0C2
:1009400023FE49E700000020C0000020B1BEC2D64F
:10095000B5F7B6C8C8CECEF1A3BA000063757272FF
:10096000656E742074696D650000000063757272B5
:10097000656E74205461736B000000002800002035
:100980007461736B256400008000A0F1C0400029F1
:10099000016802D041F0010101E0024A114001600A
:1009A00070470000FEFF0F0010B5D0E9011211439F
:1009B000D0E903231A431143426911438269114369
:1009C000C2691143026A1143426A1143826A1143A8
:1009D000C26A1143026B114302689200A2F1C04245
:1009E00011608168082907D101688900A1F1C0411F
:1009F0000A6842F040020A60416BD1E9002342EAF2
:100A000003128B688C891B0243EA04431A430B8A46
:100A100042EA03520B7D896942EA03620A43016894
:100A20008900A1F1C0414A60C16AB1F5804F08D088
:100A300000686FF070418000A0F1C040C0F8041160
:100A400010BD816BD1E9002342EA03128B680C8A46
:100A50001B0243EA04531A430B7D896942EA03628D
:100A600000680A438000A0F1C040C0F8042110BD16
:100A7000F0B5CC78002204F00F03E40601D58C78A1
:100A800023430C784FF00F0C14F0FF0F4FF0010EC2
:100A90001BD005680E880EFA02F42640A64210D13B
:100AA00096000CFA06F725EA070703FA06F5CE7852
:100AB0003D43282E02D0482E02D002E0446100E0DF
:100AC0000461521C082AE5D305600A88FF2A1CD954
:100AD0004468002202F108060EFA06F50E882E4040
:100AE000AE420ED196000CFA06F7BC4303FA06F7A5
:100AF000CE783C43282E00D14561CE78482E00D1D7
:100B00000561521C082AE5D34460F0BD01617047BD
:100B1000F0B50F4A0020441ED2E9006501460B4F94
:100B200011E0C1EBC10207EB82025368B34209D85E
:100B30001369A34206D2D2F808C0BCF1000F01D05D
:100B40001C461046491CA942EBD3F0BDC000002052
:100B500000000020FEE7000010B51148032400212A
:100B60004460104840F6B8320123C0E9011242F255
:100B70001071C16003600161C0E9092143F2B062F4
:100B8000C2624FF4FA630222C0E90723C0E91031C0
:100B900042F6E0615A008164C0E90E4210BD0000D7
:100BA00000000020C000002070B50949064600245E
:100BB00008884D8821464543204602F049F902F055
:100BC00075FA044801E00680641CAC42FBD370BD9A
:100BD000D80100200008006C2DE9F04F2B4B2C278A
:100BE000194698712B2589884FF4305A4FF4285BA9
:100BF0004FF4487441F6631E2A264FF0F00845F280
:100C000010594FF4A07C4FF4F072C8B1A3F800C0A3
:100C1000A3F80280494533D1A3F808A0A3F80AB08D
:100C2000280298811C805A80A1F5A640103802D174
:100C30001A80A3F802C0BDE8F04F002002F066B8A9
:100C4000A3F80080A3F802C0494507D1A3F808A083
:100C5000A3F80AB04FF42C50988104E071451F812D
:100C600004D15D819E811A805C8001E05E819D815E
:100C7000A1F5A6401038DED1A3F800C05A80DAE70B
:100C80001F815E8171459D81CCD0CDE7D8010020C8
:100C90002DE9FE4F0026A2EB000882465F1A701E67
:100CA00035468946B8F1000F02DD4FF0010102E040
:100CB00003D14FF00001019102E0C8F1000801905A
:100CC000002F02DD4FF0010002E003D14FF00000E1
:100CD000009002E0C7F1000700904046B84501DDF2
:100CE000044600E03C46601C4FF0000B029015E00B
:100CF0001FFA89F11FFA8AF000F016F846443D44C5
:100D0000A64202DD0199361B8A44A54202DD009904
:100D10002D1B89440BF101001FFA80FB02998B45C2
:100D2000E6DDBDE8FE8F000000B502F091F802F0AC
:100D3000BDF9024802490088088000BD2800002053
:100D40000008006CF0B51C4615460E4607460B46DB
:100D5000FFF79EFF3A46234631461046FFF798FFBD
:100D600023462A4619463846FFF792FF2A4623466D
:100D70003146BDE8F0401046FFF78ABF2DE9F04745
:100D8000DFF89C9092464A46B9F80460DFF894C0B8
:100D900093890C0A050A5289A6F5A0480CF10207AE
:100DA000B8F5A2680CD0A6F5C858B8F1630816D0FB
:100DB000ACF800203D80C0B23880ACF8003024E0B0
:100DC000ACF800203D80521CACF80020C0B2388046
:100DD000ACF800303C805B1CACF8003016E099F8B1
:100DE000066026B9B9F80050281A401E80B2ACF847
:100DF0000020020A3A80C5B23D803A80C0B23880F5
:100E0000ACF800303C80C8B238803C80C8B2388032
:100E1000B9F80800ACF80000A7F800A0BDE8F0871A
:100E2000D8010020FE07006C2DE9F0438146A2EBBB
:100E30000900401C1F460C4685B2DFF83080079E33
:100E40000FE02146484602F003F802F02FF9002097
:100E5000414602E00E80401C80B2A842FAD3641CD6
:100E6000A4B2BC42EDD9BDE8F08300000008006CDC
:100E70002DE9F04F01219FB0080202F08FF9012106
:100E80004FF4B47002F096F90120ADF83C00102048
:100E90008DF83F0003248DF83E400FA9FE48FFF770
:100EA000E7FD4CF23370ADF83C0018258DF83F504B
:100EB0008DF83E400FA9F948FFF7DAFD4FF6807034
:100EC000ADF83C008DF83F508DF83E400FA9F44836
:100ED000FFF7CEFD41F20100ADF83C008DF83F5028
:100EE0008DF83E400FA9EF48FFF7C2FD0120179093
:100EF00000200F21CDE918011A901B901C901D9025
:100F00001090CDE91104149015900621CDE9001040
:100F100016901021CDE90201139004900902CDE949
:100F200008010690059007908900CDE90A010C9010
:100F300017A80D9010A80E906846FFF735FD012107
:100F40000620FFF721FD322002F086FBD64CD3208D
:100F5000208001F0B3FED54DA88001F0AFFE2946F8
:100F6000888001F0ABFE4FF6FF77294607EA0020A4
:100F7000888001F0A3FE294649F2413A898847F268
:100F800089760843294645F21038888045F2105981
:100F900041F6631B504572D00420208001F08EFE84
:100FA000A88001F08BFEA88001F088FE07EA0020EF
:100FB000A88001F083FEA9880843A0F50541A88018
:100FC000523958D0B0425AD0D420208001F076FE59
:100FD000A88001F073FEA88001F070FE07EA0020EF
:100FE000A88001F06BFEA9880843A880404546D040
:100FF00055214FF4704002F063F8AA214FF201002E
:1010000002F05EF852214FF2020002F059F8082176
:101010004FF2030002F054F801214FF2040002F0F5
:101020004FF84FF44540208001F048FE07EA0020C9
:10103000A8804CF20150208001F040FEA9880843AE
:10104000A880052002F008FBA988494517D0A120F7
:10105000208001F033FEA88001F030FE07EA002076
:10106000A88001F02BFEA9880843A0F5AE41A88016
:10107000613902D003E0AE8001E0A5F804B0A98890
:101080008BA0FFF71BF9A888874DAD1C50457DD17B
:10109000CF20208000202880C12028803020288078
:1010A000ED202080642028800320288012202880C2
:1010B00081202880E820208085202880102028801A
:1010C0007A202880CB202080392028802C2028805E
:1010D000002028803420288002202880F7202080CB
:1010E00020202880EA202080002028802880C0201E
:1010F00020801B202880C120208001202880C5203E
:101100002080302028802880C7202080B720288099
:1011100036202080482028803A20208055202880B2
:10112000B1202080002028801A202880B62020802E
:101130000A202880A2202880F220208000202880F9
:101140002620208001202880E02020800F20288079
:101150002A20288028202880082028800E20288007
:101160000820288054202880A92028804320288017
:101170000A2028800F2028800020288028802880AE
:101180002880E12020800020288000E031E0152028
:1011900028801720288007202880112028800620FA
:1011A00028802B202880562028803C20288005205D
:1011B0002880102028800F2028803F202880288029
:1011C0000F2028802B2020800020288028800120CC
:1011D00028803F2028802A20208000202880288006
:1011E0002880EF20288011202080782002F034FA17
:1011F0009EE0B0427ED111202080782002F02CFAAF
:1012000036202080002028803A2020800520288059
:10121000B22020800C2028802880002028803320C5
:1012200028802880B720208035202880BB2020807F
:1012300032202880C02020800C202880C2202080DE
:1012400001202880C320208010202880C4202080F6
:1012500020202880C62020800F202880D0202080B9
:10126000A4202880A1202880E0202080D020288071
:101270000020288002202880072028800A2028803B
:10128000282028803220288044202880422028805E
:10129000062028800E2013E0000C014000140140BD
:1012A0000018014000200140FE07006CD80100201A
:1012B000204C43442049443A25780D0A00000000A0
:1012C0002880122028801420288017202880E120E0
:1012D0002080D0202880002028800220288007201D
:1012E00028800A2028802820288031202880542027
:1012F000288000E01FE0472028800E2028801C2046
:101300002880172028801B2028801E2028802A2043
:1013100020800020288028802880EF2028802B2013
:101320002080002028802880012028803F202880DD
:10133000292001F02EBC40457ED1ED2020800120E7
:101340002880FE202880EE202080DE20288021209A
:101350002880F120208001202880DF20208010209C
:101360002880C42020808F202880C6202080002054
:101370002880E220288028802880BF202080AA2082
:101380002880B02020800D202880002028800D207B
:101390002880002028801120288000202880192003
:1013A00028800020288021202880002028802D20CF
:1013B0002880002028803D202880002028805D2073
:1013C0002880002028805D20288000202880B120EF
:1013D000208080202880002028808B2028800020EA
:1013E00028809620288000202880B220208000209D
:1013F0002880288002202880002028800320288040
:1014000000202880B3202080002028802880288089
:10141000288028802880288028802880288028808C
:10142000288028802880288028802880288028807C
:1014300028802880288000E0FEE328802880B420CF
:1014400020808B2028800020288096202880002063
:101450002880A120288000202880B520208002201C
:101460002880002028800320288000202880042055
:10147000288000202880B620208000202880288016
:10148000B72020800020288028803F20288000204E
:1014900028805E202880002028806420288000206A
:1014A00028808C20288000202880AC2028800020E4
:1014B0002880DC20288000202880702028800020C0
:1014C00028809020288000202880EB202880002081
:1014D0002880DC20288000202880B8202080002060
:1014E00028802880288028802880288028802880BC
:1014F000BA2020802420288000202880288028806E
:10150000C12020802020288000202880542028808E
:1015100000202880FF20288000202880C2202080F2
:101520000A2028800020288004202880002028808D
:10153000C32020803C202880002028803A2028805A
:10154000002028803920288000202880372028800B
:10155000002028803C2028800020288036202880F9
:101560000020288032202880002028802F202880FA
:10157000002028802C2028800020288029202880F6
:1015800000202880262028800020288024202880F1
:1015900000202880242028800020288023202880E4
:1015A000002028803C2028800020288036202880A9
:1015B0000020288032202880002028802F202880AA
:1015C000002028802C2028800020288029202880A6
:1015D00000202880262028800020288024202880A1
:1015E0000020288024202880002028802320288094
:1015F00000202880C42020806220288000202880AD
:101600000520288000202880842028800020288031
:10161000F0202880002028801820288000202880A2
:10162000A4202880002028801820288000202880DE
:1016300050202880002028800C202880002028802E
:1016400017202880002028809520288000202880CE
:10165000F320288000202880E62028800020288091
:10166000C520208032202880002028804420288027
:10167000002028806520288000202880762028806F
:10168000002028808820288000202880C6202080F4
:1016900020202880002028801720288000202880F3
:1016A0000120288000202880C7202080002028805A
:1016B000288028802880C82020800020288028803A
:1016C00028802880C9202080002028802880288029
:1016D00028802880288028802880288028802880CA
:1016E00028802880288028802880E02020801620DC
:1016F0002880002028801C2028800020288021208D
:10170000288000202880362028800020288046203D
:1017100028800020288052202880002028806420F3
:101720002880002028807A202880002028808B2094
:101730002880002028809920288000202880A82048
:10174000288000202880B920288000202880C420FC
:10175000288000202880CA20288000202880D220CD
:10176000288000202880D920288000202880E020A0
:10177000288000202880F320288000202880E12075
:10178000208016202880002028801C20288000200F
:1017900028802220288000202880362028800020D1
:1017A0002880452028800020288052202880002082
:1017B000288064202880002028807A20288000202B
:1017C00028808B20288000202880992028800020D5
:1017D0002880A820288000202880B9202880002088
:1017E0002880C420288000202880CA20288000204B
:1017F0002880D220288000202880D820288000201F
:101800002880E020288000202880F32028800020E5
:101810002880E220208005202880002028800B20BE
:101820002880002028801B20288000202880342049
:1018300028800020288044202880002028804F20F5
:10184000288000202880612028800020288079209E
:101850002880002028808820288000202880972049
:10186000288000202880A620288000202880B720FB
:10187000288000202880C220288000202880C720BF
:10188000288000202880D120288000202880D62091
:10189000288000202880DD20288000202880F32058
:1018A000288000202880E320208005202880002038
:1018B00028800A202880002028801C2028800020E2
:1018C0002880332028800020288044202880002081
:1018D0002880502028800020288062202880002036
:1018E00028807820288000202880882028800020D8
:1018F00028809720288000202880A620288000208B
:101900002880B720288000202880C220288000203E
:101910002880C720288000202880D120288000200F
:101920002880D520288000202880DD2028800020E5
:101930002880F320288000202880E42020800120B7
:101940002880002028800120288000202880022074
:101950002880002028802A202880002028803C2001
:101960002880002028804B202880002028805D20AF
:10197000288000202880742028800020288084204F
:101980002880002028809320288000202880A22002
:10199000288000202880B320288000202880BE20B6
:1019A000288000202880C420288000202880CD2086
:1019B000288000202880D320288000202880DD2057
:1019C000288000202880F320288000202880E5201F
:1019D00020800020288028802880288002202880DD
:1019E0000020288029202880002028803C20288072
:1019F000002028804B202880002028805D2028801F
:101A000000202880742028800020288084202880BE
:101A1000002028809320288000202880A220288071
:101A200000202880B320288000202880BE20288025
:101A300000202880C420288000202880CD202880F5
:101A400000202880D320288000202880DC202880C7
:101A500000202880F320288000202880E620208095
:101A60001120288000202880342028800020288011
:101A7000562028800020288076202880002028807A
:101A80007720288000202880662028800020288059
:101A90008820288000202880992028800020288005
:101AA000BB202880002028809920288000202880C2
:101AB000662028800020288055202880002028804B
:101AC000552028800020288045202880002028805C
:101AD000432028800020288044202880002028805F
:101AE000E720208032202880002028805520288070
:101AF00000202880762028800020288066202880EA
:101B000000202880672028800020288067202880E7
:101B10000020288087202880002028809920288085
:101B200000202880BB202880002028809920288041
:101B300000202880772028800020288044202880CA
:101B400000202880562028800020288023202880FC
:101B500000202880332028800020288045202880ED
:101B600000202880E82020800020288028809920DC
:101B70002880002028808720288000202880882036
:101B80002880002028807720288000202880662058
:101B90002880002028808820288000202880AA20F3
:101BA000288000202880BB202880002028809920C1
:101BB000288000202880662028800020288055204A
:101BC000288000202880552028800020288044205C
:101BD000288000202880442028800020288055204C
:101BE000288000202880E9202080AA20288000204A
:101BF0002880288028802080AA202880CF2020804C
:101C0000002028802880288028802880288028801C
:101C10002880288028802880288028802880288084
:101C200028802880F02020800020288050202880D4
:101C300000202880288000E02BE02880F3202080EE
:101C400000202880F920208006202880102028806D
:101C500029202880002028803A20208055202880B4
:101C600011202080642001F0F7FC292020803520FD
:101C700020800020288051202080FF2028805320B1
:101C800020802C20288055202080822028802C2015
:101C9000FDE348457ED14FF470495521484601F097
:101CA0000FFA4FF20108AA21404601F009FA4FF25B
:101CB00002035221184601F003FA4FF203050821EE
:101CC000284601F0FDF96E1C0121304601F0F8F9BB
:101CD0000D214FF4304001F0F3F90D214BF20100DA
:101CE00001F0EEF90D214BF2020001F0E9F94FF499
:101CF000364A3421504601F0E3F934214BF20160B9
:101D000001F0DEF934214BF2026001F0D9F94FF411
:101D1000314B0D21584601F0D3F90D214BF2011042
:101D200001F0CEF90D214BF2021001F0C9F9342176
:101D30004FF4374001F0C4F934214BF2017001F047
:101D4000BFF934214BF2027001F0BAF900214FF4CF
:101D5000324001F0B5F900214BF2012001F0B0F959
:101D600000214BF2022001F0ABF924214FF438405E
:101D700001F0A6F924214BF6010001F0A1F924217C
:101D80004BF6020001F09CF901214FF43F4001F0B5
:101D900097F900E0FEE30F214FF4334001F090F992
:101DA0000F214BF2013001F08BF90F214BF2023081
:101DB00001F086F934214FF4394001F081F93421E2
:101DC0004BF6011001F07CF934214BF6021001F0C2
:101DD00077F908214FF4354001F072F908214BF2F0
:101DE000015001F06DF908214BF2025001F068F941
:101DF00003214FF4424001F063F924214FF43A40AB
:101E000001F05EF924214BF6012001F059F924215B
:101E10004BF6022001F054F900214FF43C4001F050
:101E20004FF978214BF6014001F04AF900214BF6B9
:101E3000024001F045F900214FF43D4001F040F926
:101E400078214BF6015001F03BF900214BF602508E
:101E500001F036F900214FF43E4001F031F96421E0
:101E60004BF6016001F02CF900214FF4514001F0D4
:101E700027F933214DF2011001F022F900214DF232
:101E8000021001F01DF934214DF2031001F018F990
:101E900000214DF2041001F013F93A214DF2051022
:101EA00001F00EF900214DF2061001F009F94A2166
:101EB0004DF2071001F004F900214DF2081001F075
:101EC000FFF85C214DF2091001F0FAF800214DF203
:101ED0000A1001F0F5F881214DF20B1001F0F0F835
:101EE00000214DF20C1001F0EBF8A6214DF20D107F
:101EF00001F0E6F800214DF20E1001F0E1F8E521C5
:101F00004DF20F1001F0DCF801214DF2101001F03C
:101F1000D7F813214DF2111001F0D2F801214DF242
:101F2000121001F0CDF854214DF2131001F0C8F851
:101F300001214DF2141001F0C3F882214DF2151069
:101F400001F0BEF801214DF2161001F0B9F8CA21D6
:101F50004DF2171001F0B4F802214DF2181001F003
:101F6000AFF800214DF2191001F0AAF802214DF24C
:101F70001A1001F0A5F801214DF21B1001F0A0F894
:101F800002214DF21C1001F09BF834214DF21D107E
:101F900001F096F802214DF21E1001F091F8672130
:101FA0004DF21F1001F08CF802214DF2201001F0CB
:101FB00087F884214DF2211001F082F802214DF2C0
:101FC000221001F07DF8A4214DF2231001F078F8E1
:101FD00002214DF2241001F073F8B7214DF22510C3
:101FE00001F06EF802214DF2261001F069F8CF21C0
:101FF0004DF2271001F064F802214DF2281001F093
:102000005FF8DE214DF2291001F05AF802214DF25D
:102010002A1001F055F8F2214DF22B1001F050F882
:1020200002214DF22C1001F04BF8FE214DF22D1043
:1020300001F046F803214DF22E1001F041F8102175
:102040004DF22F1001F03CF803214DF2301001F059
:1020500037F833214DF2311001F032F803214DF2FF
:10206000321001F02DF86D214DF2331001F028F8F7
:1020700000214FF4524001F023F833214DF20120AA
:1020800001F01EF800214DF2022001F019F8342170
:102090004DF2032001F014F800214DF2042001F06C
:1020A0000FF83A214DF2052001F00AF800214DF217
:1020B000062001F005F84A214DF2072001F000F852
:1020C00000214DF2082000F0FBFF5C214DF20920B9
:1020D00000F0F6FF00214DF20A2000F0F1FF81210F
:1020E0004DF20B2000F0ECFF00214DF20C2000F02F
:1020F000E7FFA6214DF20D2000F0E2FF00214DF296
:102100000E2000F0DDFFE5214DF20F2000F0D8FF9A
:1021100001214DF2102000F0D3FF13214DF21120C8
:1021200000F0CEFF01214DF2122000F0C9FF542132
:102130004DF2132000F0C4FF01214DF2142000F0F5
:10214000BFFF82214DF2152000F0BAFF01214DF2B0
:10215000162000F0B5FFCA214DF2172000F0B0FFA5
:1021600002214DF2182000F0ABFF00214DF21920A2
:1021700000F0A6FF02214DF21A2000F0A1FF01217C
:102180004DF21B2000F09CFF02214DF21C2000F0BC
:1021900097FF34214DF21D2000F092FF02214DF2F5
:1021A0001E2000F08DFF67214DF21F2000F088FFF8
:1021B00002214DF2202000F083FF84214DF22120E6
:1021C00000F07EFF02214DF2222000F079FFA421D1
:1021D0004DF2232000F074FF02214DF2242000F084
:1021E0006FFFB7214DF2252000F06AFF02214DF26A
:1021F000262000F065FFCF214DF2272000F060FF80
:1022000002214DF2282000F05BFFDE214DF2292053
:1022100000F056FF02214DF22A2000F051FFF2217A
:102220004DF22B2000F04CFF02214DF22C2000F04B
:1022300047FFFE214DF22D2000F042FF03214DF219
:102240002E2000F03DFF10214DF22F2000F038FF2E
:1022500003214DF2302000F033FF33214DF23120C5
:1022600000F02EFF03214DF2322000F029FF6D21F6
:102270004DF2332000F024FF00214FF4534000F0D2
:102280001FFF33214DF2013000F01AFF00214DF203
:10229000023000F015FF34214DF2033000F010FF42
:1022A00000214DF2043000F00BFF3A214DF20530D1
:1022B00000F006FF00214DF2063000F001FF4A2138
:1022C0004DF2073000F0FCFE00214DF2083000F026
:1022D000F7FE5C214DF2093000F0F2FE00214DF2D4
:1022E0000A3000F0EDFE81214DF20B3000F0E8FEE7
:1022F00000214DF20C3000F0E3FEA6214DF20D302E
:1023000000F0DEFE00214DF20E3000F0D9FEE52196
:102310004DF20F3000F0D4FE01214DF2103000F0EC
:10232000CFFE13214DF2113000F0CAFE01214DF213
:10233000123000F0C5FE54214DF2133000F0C0FE03
:1023400001214DF2143000F0BBFE82214DF2153018
:1023500000F0B6FE01214DF2163000F0B1FECA21A8
:102360004DF2173000F0ACFE02214DF2183000F0B3
:10237000A7FE00214DF2193000F0A2FE02214DF21D
:102380001A3000F09DFE01214DF21B3000F098FE46
:1023900002214DF21C3000F093FE34214DF21D302D
:1023A00000F08EFE02214DF21E3000F089FE672102
:1023B0004DF21F3000F084FE02214DF2203000F07B
:1023C0007FFE84214DF2213000F07AFE02214DF291
:1023D000223000F075FEA4214DF2233000F070FE93
:1023E00002214DF2243000F06BFEB7214DF2253072
:1023F00000F066FE02214DF2263000F061FECF2192
:102400004DF2273000F05CFE02214DF2283000F042
:1024100057FEDE214DF2293000F052FE02214DF22E
:102420002A3000F04DFEF2214DF22B3000F048FE34
:1024300002214DF22C3000F043FEFE214DF22D30F2
:1024400000F03EFE03214DF22E3000F039FE102147
:102450004DF22F3000F034FE03214DF2303000F009
:102460002FFE33214DF2313000F02AFE03214DF2D0
:10247000323000F025FE6D214DF2333000F020FEA9
:1024800000214FF4544000F01BFE332100E080E3B4
:102490004DF2014000F014FE00214DF2024000F028
:1024A0000FFE34214DF2034000F00AFE00214DF2F0
:1024B000044000F005FE3A214DF2054000F000FE18
:1024C00000214DF2064000F0FBFD4A214DF207408D
:1024D00000F0F6FD00214DF2084000F0F1FD5C2116
:1024E0004DF2094000F0ECFD00214DF20A4000F0F1
:1024F000E7FD81214DF20B4000F0E2FD00214DF29D
:102500000C4000F0DDFDA6214DF20D4000F0D8FD9D
:1025100000214DF20E4000F0D3FDE5214DF20F40B9
:1025200000F0CEFD01214DF2104000F0C9FD132155
:102530004DF2114000F0C4FD01214DF2124000F0B7
:10254000BFFD54214DF2134000F0BAFD01214DF2C0
:10255000144000F0B5FD82214DF2154000F0B0FDB1
:1025600001214DF2164000F0ABFDCA214DF217409B
:1025700000F0A6FD02214DF2184000F0A1FD00215F
:102580004DF2194000F09CFD02214DF21A4000F07E
:1025900097FD00E0FFE201214DF21B4000F090FDAD
:1025A00002214DF21C4000F08BFD34214DF21D4004
:1025B00000F086FD02214DF21E4000F081FD6721F2
:1025C0004DF21F4000F07CFD02214DF2204000F052
:1025D00077FD84214DF2214000F072FD02214DF281
:1025E000224000F06DFDA4214DF2234000F068FD73
:1025F00002214DF2244000F063FDB7214DF2254049
:1026000000F05EFD02214DF2264000F059FDCF2181
:102610004DF2274000F054FD02214DF2284000F019
:102620004FFDDE214DF2294000F04AFD02214DF21E
:102630002A4000F045FDF2214DF22B4000F040FD14
:1026400002214DF22C4000F03BFDFE214DF22D40C9
:1026500000F036FD03214DF22E4000F031FD102137
:102660004DF22F4000F02CFD03214DF2304000F0E0
:1026700027FD33214DF2314000F022FD03214DF2C0
:10268000324000F01DFD6D214DF2334000F018FD89
:1026900000214FF4554000F013FD33214DF201505D
:1026A00000F00EFD00214DF2025000F009FD342132
:1026B0004DF2035000F004FD00214DF2045000F0F3
:1026C000FFFC3A214DF2055000F0FAFC00214DF2DA
:1026D000065000F0F5FC4A214DF2075000F0F0FCE6
:1026E00000214DF2085000F0EBFC5C214DF2095046
:1026F00000F0E6FC00214DF20A5000F0E1FC8121DF
:102700004DF20B5000F0DCFC00214DF20C5000F0BB
:10271000D7FCA6214DF20D5000F0D2FC00214DF265
:102720000E5000F0CDFCE5214DF20F5000F0C8FC3A
:1027300001214DF2105000F0C3FC13214DF2115055
:1027400000F0BEFC01214DF2125000F0B9FC542102
:102750004DF2135000F0B4FC01214DF2145000F082
:10276000AFFC82214DF2155000F0AAFC01214DF280
:10277000165000F0A5FCCA214DF2175000F0A0FC45
:1027800002214DF2185000F09BFC00214DF219502F
:1027900000F096FC02214DF21A5000F091FC01214C
:1027A0004DF21B5000F08CFC02214DF21C5000F049
:1027B00087FC34214DF21D5000F082FC02214DF2C5
:1027C0001E5000F07DFC67214DF21F5000F078FC98
:1027D00002214DF2205000F073FC84214DF2215073
:1027E00000F06EFC02214DF2225000F069FCA421A1
:1027F0004DF2235000F064FC02214DF2245000F011
:102800005FFCB7214DF2255000F05AFC02214DF239
:10281000265000F055FCCF214DF2275000F050FC1F
:1028200002214DF2285000F04BFCDE214DF22950E0
:1028300000F046FC02214DF22A5000F041FCF2214A
:102840004DF22B5000F03CFC02214DF22C5000F0D8
:1028500037FCFE214DF22D5000F032FC03214DF2E9
:102860002E5000F02DFC10214DF22F5000F028FCCE
:1028700003214DF2305000F023FC33214DF2315052
:1028800000F01EFC03214DF2325000F019FC6D21C6
:102890004DF2335000F014FC00214FF4564000F08C
:1028A0000FFC33214DF2016000F00AFC00214DF2D3
:1028B000026000F005FC34214DF2036000F000FCE2
:1028C00000214DF2046000F0FBFB3A214DF205605F
:1028D00000F0F6FB00214DF2066000F0F1FB4A210A
:1028E0004DF2076000F0ECFB00214DF2086000F0B3
:1028F000E7FB5C214DF2096000F0E2FB00214DF2A4
:102900000A6000F0DDFB81214DF20B6000F0D8FB86
:1029100000214DF20C6000F0D3FBA6214DF20D60BA
:1029200000F0CEFB00214DF20E6000F0C9FBE52166
:102930004DF20F6000F0C4FB01214DF2106000F079
:10294000BFFB13214DF2116000F0BAFB01214DF2E3
:10295000126000F0B5FB54214DF2136000F0B0FBA3
:1029600001214DF2146000F0ABFB82214DF21560A5
:1029700000F0A6FB01214DF2166000F0A1FBCA2178
:102980004DF2176000F09CFB02214DF2186000F040
:1029900097FB00214DF2196000F092FB02214DF2ED
:1029A0001A6000F08DFB01214DF21B6000F088FBE6
:1029B00002214DF21C6000F083FB34214DF21D60BA
:1029C00000F07EFB02214DF21E6000F079FB6721D2
:1029D0004DF21F6000F074FB02214DF2206000F008
:1029E0006FFB84214DF2216000F06AFB02214DF261
:1029F000226000F065FBA4214DF2236000F060FB33
:102A000002214DF2246000F05BFBB7214DF22560FE
:102A100000F056FB02214DF2266000F051FBCF2161
:102A20004DF2276000F04CFB02214DF2286000F0CF
:102A300047FBDE214DF2296000F042FB02214DF2FE
:102A40002A6000F03DFBF2214DF22B6000F038FBD4
:102A500002214DF22C6000F033FBFE214DF22D607F
:102A600000F02EFB03214DF22E6000F029FB102117
:102A70004DF22F6000F024FB03214DF2306000F096
:102A80001FFB33214DF2316000F01AFB03214DF2A0
:102A9000326000F015FB6D214DF2336000F010FB49
:102AA0005521484600F00CFBAA21404600F008FBE7
:102AB0005221184600F004FB0821284600F000FBD4
:102AC0000021304600F0FCFACC21584600F0F8FA1C
:102AD00000214BF2011000F0F3FA0521504600F0FE
:102AE000EFFA70214FF4374000F0EAFA70214BF210
:102AF000017000F0E5FA01214FF4384000F0E0FAEF
:102B000003214BF6010000F0DBFA03214BF6020033
:102B100000F0D6FA03214BF6030000F0D1FA0221AF
:102B20004FF43C4000F0CCFA00214BF6014000F09D
:102B3000C7FA00214BF6024000F0C2FAD0214FF450
:102B4000494000F0BDFA02214CF6011000F0B8FA3D
:102B500050214CF6021000F0B3FA50214CF603104D
:102B600000F0AEFA50214CF6041000F0A9FA002152
:102B70004FF4545000F0A4FA55214FF4685000F07F
:102B80009FFA4FF488502080782000F081FD4FF4A8
:102B9000245020807BE0584579D1E22020801D2000
:102BA00028800220288004202880642000F070FD06
:102BB000E0202080012028800A2000F04DFDE02048
:102BC0002080032028800C2000F046FD012020807A
:102BD0000A2000F041FDE62020802F202880FF20E1
:102BE00028802880B0202080202028800020288075
:102BF0000320288040F21F3028800120288040F2E6
:102C0000DF10288000202880B42020800420288025
:102C100040F21F402880002028802E20288000209D
:102C20002880288028802880B620208002202880C4
:102C30004FF403702880002028801720288015205A
:102C40002880002028802880F020208003202880F1
:102C500029202080D020208000202880BE202080B5
:102C600005202880FE202880012028800020288040
:102C700028802880B82020800320288001202880F8
:102C8000BA20208001202880642000F021F8002054
:102C9000FDF7A2FF04490120C1F880013846FDF785
:102CA00083FF1FB0BDE8F08F008021420346012062
:102CB00000E05843491EC9B2FBD27047034808B52B
:102CC0000088ADF80000BDF8000008BD0008006CE9
:102CD0000C4A10B5BE211180941C0521218002F000
:102CE00066FC4FF06632084B02F074FC02F032FCD6
:102CF000208001202080FF20208000202080208054
:102D000010BD0000FE07006C6666044070B54E4DB5
:102D100000232946AA79898841F66314012A01D043
:102D20001AB11BE0A14202D118E0A14216D1082835
:102D300014D2DFE800F00406080A0C0E1012062078
:102D40000CE007200AE0042008E0052006E001204E
:102D500004E0002002E0032000E00220082812D254
:102D6000DFE800F0110406080A0C0E1080230AE0C8
:102D7000402308E0C02306E0202304E0602302E0B3
:102D8000A02300E0E02345F21056B14202D14FF4F7
:102D9000585000E03620A1F51342413A03D0A1F586
:102DA000EE42893A01D143F00803194600F088F950
:102DB000AA88A2420AD098062888698802D5884243
:102DC00002D303E0884201D9298068801F48811C12
:102DD000B2426A89028021D100230B80531C0380F8
:102DE00000230B80931C03802B885B1E1C0A0C8025
:102DF000D21C0280DAB20A80AA89028000230B80EA
:102E0000531C038000230B80931C03806B885B1E84
:102E10001C0A0C80D21C0280D8B212E000220A8068
:102E20000A802A88521E130A0B80D2B20A80AA890D
:102E300002800020088008806888401E020A0A80FC
:102E4000C0B2088070BD0000D8010020FE07006CF1
:102E50002DE9F043DFF8A490294F4A46B9F804C0A1
:102E60009389050A0C0ABE1C5289ACF5C858B8F102
:102E700063080ED0ACF5A048B8F5A2683A8035805A
:102E800033D0C0B230803B803480C8B23080BDE8DF
:102E9000F083DFF868C099F80680BCF800C0B8F18C
:102EA000000F16D03A803580C0B23080ACF1010CF2
:102EB0004FEA1C2030800CF0FF0030803B803480D3
:102EC000C8B23080B9F80200401E010A3180C0B299
:102ED000DCE7ACEB0000401E80B23A80002232807A
:102EE0003280020A3280C0B2E7E7521C3A80C0B298
:102EF00030803B8034805B1C3B80C6E7D8010020DB
:102F0000FE07006C2DE9F84F82461F460C468B46A3
:102F1000580700D0012000EBD70079084843203A39
:102F2000C0B202F0FF090026009041E00C2F10D043
:102F3000102F12D0182F3ED1204909EBC90001EB08
:102F400080004FF00008855D28060AD51C480288DD
:102F50000BE009EB49001B49F1E71B4901EB0910A4
:102F6000EFE70A9828B91648428821465046FDF7EF
:102F700005FF6806050E1548641CA4B24088A042EF
:102F800019D9A4EB0B00B84209D10AF101001FFACC
:102F900080FA0E485C46018851450CD906E008F1DC
:102FA000010000F0FF08B8F1080FCDD3761CF6B28F
:102FB00000988642BAD3BDE8F88F0000346200085A
:102FC00028000020D0570008445C0008D8010020E9
:102FD0002DE9F84F044600F0FF0810190D46DDE911
:102FE0000A761FFA80FA58191FFA80F94FF0000B81
:102FF00011E0544502D3E819444685B24D450FD23D
:103000003B4629462046CDF800B0FFF77BFF04EB96
:10301000570084B2761C3278A2F120005E28E8D9ED
:10302000BDE8F88F2DE9FF4F81B08046DDF83CA068
:103030000E984FF000091F4693464C460AF00105D2
:1030400046082BE0381B401EC1B20A20FFF72EFEB7
:10305000BBFBF0F00A21B0FBF1F201FB1200B9F169
:10306000000F05D1791E8C4202DA48B14FF00109F8
:103070003030C2B206FB048080B200950E9B08E09F
:103080005FEA0A6006FB04800E9B80B200950AD5B9
:1030900030220299FFF736FF641CE4B2BC42D1D360
:1030A00005B0BDE8F08F2022F3E700000248034995
:1030B0000089088070470000D8010020FE07006CDE
:1030C000024A1080901C018070470000FE07006CCF
:1030D00038B50121482000F06DF82024ADF80040FB
:1030E00010208DF8030003200B4D8DF80200694677
:1030F0002846FDF7BDFC20212846FDF707FDADF869
:103100000040064C69462046FDF7B2FC20212046CF
:10311000FDF7FCFC38BD0000000C01400018014028
:10312000FEE7704730B50F23C27801780125F2B170
:10313000144A126801F1E02102F4E062C2F5E06293
:10314000120AC2F10404D3404278A24084781C40A1
:103150001443220181F80024007800F01F018D4003
:103160004009800000F1E020C0F8005130BD01F0BE
:103170001F0085404809800000F1E020C0F8805120
:1031800030BD00000CED00E0024908430249086030
:10319000704700000000FA050CED00E0044A002929
:1031A000516901D0014300E0814351617047000043
:1031B00000100240044A0029916901D0014300E057
:1031C00081439161704700000010024030B5204AF1
:1031D0005168204B11F00C0103D0042901D00829BB
:1031E00001D0036012E05168536801F470114FF090
:1031F000020413F4803F04EB914102D053689B0317
:1032000001D5154B00E0134B5943016051680F2362
:1032100003EA1111114B5C5C0168E14041605468A4
:10322000072505EA14241C5D21FA04F4846054681F
:1032300005EAD4241B5DD940C1605268032303EA28
:103240009232064B1B1F9A5CB1FBF2F1016130BD5B
:103250000010024000127A0000093D003C000020EE
:103260000CB50022264800920192016841F4803199
:1032700001604FF4A063016801F4003101910099ED
:10328000491C0091019911B900999942F3D1016843
:10329000890333D5012101911A490A6842F01002CD
:1032A0000A600A6822F003020A600A6842F0020219
:1032B0000A604168416041684160416841F4806151
:1032C0004160416821F47C114160416841F4E8119A
:1032D0004160016841F08071016001688901FCD59D
:1032E000416821F003014160416841F00201416001
:1032F0004168C1F381010229FAD10CBD01920CBDD4
:1033000000100240002002404FF0E021042808692C
:1033100003D020F004000861704740F00400FAE791
:1033200010B501F0BBFE012803D0BDE8104001F04C
:10333000A9BB10BD0F4810B5016841F00101016043
:1033400041680D4A1140416001680C4A114001601A
:10335000016821F480210160416821F4FE0141608F
:103360004FF41F018160FFF77BFF05494FF00060BC
:10337000086010BD001002400000FFF8FFFFF6FEDD
:1033800008ED00E04FF47A7403A0FCF797FF2046A5
:1033900001F0FAF8F8E700007461736B310D0A0070
:1033A0004FF47A7403A0FCF789FF204601F0ECF893
:1033B000F8E700007461736B320D0A004FF47A7401
:1033C00003A0FCF77BFF204601F0DEF8F8E70000E1
:1033D0007461736B330D0A0010B5084C012120464F
:1033E00000F039F8012802D105A0FCF767FF20465C
:1033F000BDE81040012100F02BB80000000400409F
:1034000054494D33CAE4B3F62E2E2E2E2E2E2E0DF9
:103410000A00000010B5084C0121204600F01BF8FE
:10342000012802D105A0FCF749FF2046BDE8104065
:10343000012100F00DB80000000C004054494D354A
:10344000CAE4B3F62E2E2E2E2E2E2E0D0A000000CC
:10345000C9430182704702460020138A92890B42B9
:1034600002EA010202D0002A00D0012070470000C9
:1034700070B5154C40F22551204600F035F8002873
:103480000ED0204600F0BEF8104AC1B210880304E6
:1034900006D444044FF0000306D50A2901D0138056
:1034A00070BD40F400400DE00D2909D0C0F30D04BB
:1034B000074D401C80B229551080C728EFD870BD39
:1034C00040F48040108070BD003801403000002082
:1034D000E60100200029818902D041F4005101E079
:1034E00021F400518181704770B501F01F0501265C
:1034F0000024C1F3421306FA05F2012B0FD0022B70
:103500000FD0838A4FEA11210088134206FA01F690
:1035100000EA060001D000B10124204670BD838975
:10352000F0E7038AEEE710B5C1F3421301F01F0480
:103530000121A140012B07D0022B07D01430002A13
:10354000026805D00A4304E00C30F8E71030F6E7D3
:103550008A43026010BD000030B50446008A85B081
:103560000D464CF6FF710840E98801432182A0898D
:103570004EF6F3110840A9882A8911436A8902434B
:103580001143A181A08A4FF6FF410840A989014358
:10359000A1826846FFF71AFE1948844201D10398B8
:1035A00000E00298A189090400EBC00101EB0010C2
:1035B000296801D5490000E08900B0FBF1F06422E0
:1035C000B0FBF2F109010B096FF018056B4300EB3A
:1035D0008300A3891D044FF0320306D503EBC0001E
:1035E000B0FBF2F000F0070005E003EB0010B0FBC9
:1035F000F2F000F00F000843208105B030BD00005C
:10360000003801408088C0F308007047FEE770472B
:1036100010B50420FFF778FE0C480D490D4A0068EC
:10362000B0FBF1F3B0FBF1F14FF47A70414313704A
:10363000012050804FF0E020026942F00202026156
:103640004161016941F00101016110BD14000020D8
:1036500040420F002C00002070B5044601F01EFD12
:1036600001280CD0094D6888844203D3B4FBF0F0E4
:1036700000F08AFF6888B4FBF0F100FB11444FF4BE
:103680007A706043BDE8704000F002B82C00002062
:1036900070B54FF0E02500216C69094AAB691278DA
:1036A0005043AA699A42FCD002D2A3EB020302E083
:1036B000A4EB02063344194413468142F1D370BD92
:1036C0002C00002004490A885206FCD5024AC1B2E7
:1036D000121D118070470000003801401CB54FF4E6
:1036E0004070FFF751FDFFF793FF4FF4E13000F01A
:1036F00071FDFFF7EDFCFDF7BBFB20494FF478406F
:10370000302308801EA11820CDE900014FF49672E5
:103710000A211E20FFF75CFCFDF71EFA1B48012161
:10372000CDE900100023822219A11B4801F08AFC78
:10373000164802211C30CDE900100023822217A177
:10374000184801F07FFC114803213830CDE9001002
:103750000023822214A1164801F074FC15494FF091
:10376000FF300023C9688222CDE9000112A116486A
:1037700001F068FC01F052F800201CBD2800002078
:1037800052544F532054455354000000D800002099
:103790005461736B31000000853300085461736B12
:1037A00032000000A13300085461736B3300000045
:1037B000BD330008000000204544465F5363686540
:1037C00064756C6572000000C90700082DE9F041BE
:1037D000184E0F460446F5683068001D00F04AFD9B
:1037E00038B9306890F82C10012088403169814345
:1037F0003161601C07D137B13168BDE8F0410E4836
:10380000091D00F06FBD30682C44AC424460316843
:1038100005D2B06BBDE8F041091D00F04BBD706BE7
:10382000091D00F047FDB06A844200D2B462BDE8D1
:10383000F08100004C000020C00500202DE9F0417F
:10384000054600F05BFD2D4EB068401CB06030684E
:103850002B4F10B1706930B32BE03560B068012890
:1038600027D1002404EB840007EB800000F014FD56
:10387000641C202CF6D3234800F00EFD21481430A0
:1038800000F00AFD1F48283000F006FD1D483C30BE
:1038900000F002FD1B48503000F0FEFC1948706338
:1038A0001430B06305E03068E96AC06A884200D825
:1038B0003560706A0121401C70626864E86A326990
:1038C00081401143316100EB800007EB8000291D2E
:1038D00000F008FD00F04EFD706900280CD0306843
:1038E000E96AC06A884207D207494FF080500860F1
:1038F000BFF34F8FBFF36F8FBDE8F0814C00002006
:10390000F00200207005002004ED00E010B500F08A
:10391000F5FC0E4C2068A0B90D4800F0BDFC0C4829
:10392000143000F0B9FC0A48E06014302061002235
:103930001021052001F0BCF8206010B105A100F0B5
:10394000EFFDBDE8104000F015BD0000880000202C
:10395000D4050020546D72510000000070B5124E65
:10396000124D1CE001F00CF8306820B1002401F089
:10397000C3FCA4B901E00124F9E700F0BFFCF06842
:10398000C468201D00F076FCA868401EA860686826
:10399000401E686000F0EEFC204600F052F86868B7
:1039A0000028DFD170BD0000AC0500204C000020D5
:1039B00030B4026C0B46002A0BD0C1681144C160C0
:1039C0004468A14201D30168C16030BC1846FCF7CD
:1039D0005BBD30BC70472DE9F041856B174604464E
:1039E0000026026C82B1C7B1E068FCF74DFDE168CA
:1039F000206C091AE1602268914202D26168081ABB
:103A0000E060022F16D017E02068A8B9606801F0C6
:103A1000CDFB0646002060600EE0A068FCF734FD98
:103A2000216CA0680844A0606168884204D32068C3
:103A3000A06001E005B16D1E6D1CA5633046BDE8B8
:103A4000F08110B50446006B00F0C6FC2046BDE8CE
:103A5000104000F0C1BC000010484FF4A0414207E4
:103A600006D0C01D0D4920F00700411AC1F5A04144
:103A70000B4A00230144C2E900030839103A21F03F
:103A8000070111604B600B600B1AC0E900139360D3
:103A90004FF000405360D06070470000FC050020EC
:103AA000AC000020074E4FF08054074DFFF756FF43
:103AB00030680128FAD92C60BFF34F8FBFF36F8FA6
:103AC000F4E70000F002002004ED00E02DE9F047EB
:103AD000DDE909840E461746824691009946089D05
:103AE000A522206BFCF715FD6FF00301206B01EBA5
:103AF0008701084420F00707780705D040F22B32F1
:103B000019A11EA0FCF7DAFB00202218315C82F814
:103B10003410315C11B1401C1028F6D3002684F813
:103B20004360202D00D31F25E562C4E91356201DF4
:103B300000F0BDFB04F1180000F0B9FB2461C5F1F1
:103B400020006462A061666584F858604A46514668
:103B5000384600F02DFB2060B8F1000F01D0C8F806
:103B60000040BDE8F08700002E2E5C46726565526D
:103B7000544F535C7461736B732E63004572726FA4
:103B8000723A25732C25640D0A00000030B51149E6
:103B900000E011460A688242FBD34B685C188442FD
:103BA00003D1406818444860084643681C18944292
:103BB00009D1084C103C2468A24209D052681A442A
:103BC00042600A6812680260814200D0086030BD1D
:103BD0000460F9E7AC00002070B5002441600B4D93
:103BE0000061914206D8D11A8269914206D2011D24
:103BF000286907E09A4203D2994201D3012403E0E5
:103C0000011DE86800F056FB204670BD88000020CA
:103C100010B5044600F072FBA06B20B1002400F048
:103C2000A9FB204610BD0124F9E700002DE9F3416E
:103C300000980F460026846C2CB940F6CE1216A1CF
:103C40001AA0FCF73BFBA06BE16B884205D340F662
:103C5000CF1211A115A0FCF731FBA06BE16B8842DC
:103C60000CD294F945503A4669462046FFF7B3FE18
:103C70000646681C05D06D1C84F845503046BDE8EA
:103C8000FC81606A0028F9D004F1240001F0E8FA10
:103C90000028F3D00126F1E72E2E5C4672656552AE
:103CA000544F535C71756575652E63004572726F74
:103CB000723A25732C25640D0A000000F8B50546FC
:103CC00014480E46C068C068C468201D00F0D2FACF
:103CD000E069012817D1A0692B46411932462046D8
:103CE000FFF77AFF78B100200346014600902A468C
:103CF000204601F0E7FB30B907494FF4027201F1A9
:103D00001800FCF7DBFA616A01B02046BDE8F0401C
:103D100008470000880000202854000870B586B0CD
:103D20002F4E53E00198002806DADDE90301029ADC
:103D300090470198002849DB039C606910B1201D61
:103D400000F098FA05A800F0A7F8054601980A289F
:103D50003CD2DFE800F00505053B273805053B2789
:103D60000298A169034601442A462046FFF734FF22
:103D700000282BD0616A20468847E069012825D1B8
:103D8000002000900298A16900234218194620469D
:103D900001F098FBD0B940F2213212A117A0FCF734
:103DA0008DFA13E00298A06128B94FF44E720DA16C
:103DB00012A0FCF783FAA0692B4641191A46204647
:103DC000FFF70AFF02E0204600F006FB00231A4638
:103DD00001A9306800F0A8FE0028A3D106B070BD8C
:103DE000880000202E2E5C4672656552544F535C4D
:103DF00074696D6572732E63000000004572726F06
:103E0000723A25732C25640D0A000000F8B50D46A2
:103E1000064600F0B5FD684600F03EF804460098FE
:103E200010B101F069FAF8BD1148ADB10169096836
:103E3000D9B10025311B2A46006800F083FB01F050
:103E40005BFA0028EFD10B494FF080500860BFF3B8
:103E50004F8FBFF36F8FF8BDA642EBD801F04CFA3D
:103E600021463046FFF72AFFF8BD0125E2E70000B2
:103E70008800002004ED00E00648416B096829B184
:103E8000416BC968C9684968816270474FF0FF316A
:103E9000FAE700004C00002070B5054601F00CF96F
:103EA000064E0446B068844203D200F009F80120AF
:103EB00000E0002028602046B46070BD880000202B
:103EC000F8B5184E26E0C068C4680568201D00F0EB
:103ED000D1F9616A20468847E06901281AD1A069B2
:103EE0002844A84206D924616060211DF06800F0D2
:103EF000E1F90FE000200346014600902A462046E3
:103F000001F0E0FA30B9084940F2923201F11800AC
:103F1000FCF7D4F9F06801680029D4D13169C6E909
:103F20000310F8BD880000202854000808484068A5
:103F3000401C04D0F42207A111A0FCF7BFF95020C7
:103F400080F31188BFF34F8FBFF36F8FFEE7000040
:103F5000B40000202E2E5C4672656552544F535CAF
:103F6000706F727461626C655C525644535C41526E
:103F70004D5F434D335C706F72742E630000000020
:103F80004572726F723A25732C25640D0A00000089
:103F900070B50025040005D140F2816207A10CA094
:103FA000FCF78CF90E496069884205D1A06A28396E
:103FB000884201D000B90125284670BD2E2E5C46EE
:103FC00072656552544F535C7461736B732E63005A
:103FD0004572726F723A25732C25640D0A00000039
:103FE000C0050020084CE068016839B1002139B1F2
:103FF0000020FFF70BFFFFF791FEF4E70121F6E742
:10400000C0680068F5E70000880000202DE9F04155
:10401000044600F073F994F9455004F1240610E0C9
:10402000A06C20B100212046FFF700FE04E0606A8A
:1040300048B1304601F014F908B100F0DBFA6D1E0A
:104040006DB2002DECDC4FF0FF3684F8456000F0D7
:1040500091F900F053F994F9445004F1100709E084
:10406000206948B1384601F0FBF808B100F0C2FA07
:104070006D1E6DB2002DF3DC84F84460BDE8F041A4
:1040800000F078B92DE9F0410546002600F078FCF3
:10409000324F386808B9FFF7DFFCF86805424FD1A6
:1040A000002D4DD0083568070BD005F00700C0F192
:1040B00008000544680704D0BF2229A132A0FCF7FC
:1040C000FDF8002D3CD07868854239D8234910315D
:1040D0000846046801E0214604466068A84202D20E
:1040E00020680028F7D13868B846844228D00E6886
:1040F0002068086060680836401B10280ED96719D0
:10410000780704D0EC2216A11FA0FCF7D7F860684E
:10411000401B786038466560FFF738FD6168D8F865
:1041200004004246401AC8F80400D8F80830984203
:1041300000D29060D8F80C0001430020C4E90001CF
:1041400001F0DAF8700705D04FF4967204A10EA0C2
:10415000FCF7B4F83046BDE8F08100009C00002078
:104160002E2E5C4672656552544F535C706F7274AC
:1041700061626C655C4D656D4D616E675C68656123
:10418000705F342E630000004572726F723A2573BF
:104190002C25640D0A0000000449086818B108685D
:1041A000026D521C02650868704700004C00002038
:1041B00010B5031F4FF080741C601B1F21F001011C
:1041C0001960191F024B0B60143940380A6010BD8A
:1041D0002D3F000870B5054686B0012144F2040069
:1041E000FEF7E8FF4FF40070ADF8100003248DF8DF
:1041F000124018201D4E8DF8130004A93046FCF71C
:1042000037FC3015ADF8100004208DF8130004A918
:104210003046FCF72DFC25208DF814008DF8154054
:104220008DF8164001208DF8170005A8FEF77AFFDB
:104230000020ADF80400ADF80600ADF80800ADF8B8
:104240000C000C200A4CADF80A0000956946204687
:10425000FFF782F9012240F225512046FFF763F96A
:1042600001212046FFF736F906B070BD0008014075
:1042700000380140D0E9013201699A60D0E9012398
:104280005A604A68824201D182684A600022026113
:104290000868401E0860704700F108014FF0FF32C7
:1042A000C0E90112C1600161002101607047002175
:1042B0000161704730B50C68621C02D000F1080241
:1042C00002E0026904E01A4653681D68A542FAD963
:1042D00053684B6099608A60516008610168491CAD
:1042E000016030BD42684A6093688B609368596092
:1042F000916008610168491C01607047502080F39B
:104300001188BFF34F8FBFF36F8F09494868401C76
:10431000486001280AD10748006810F0FF0F05D057
:104320004FF4BD7204A10FA0FBF7C8BF7047000097
:10433000B400002004ED00E02E2E5C46726565524C
:10434000544F535C706F727461626C655C5256447A
:10435000535C41524D5F434D335C706F72742E63FA
:10436000000000004572726F723A25732C25640DAF
:104370000A00000010B5084C606828B940F28112AC
:1043800006A111A0FBF79AFF6068401E606001D192
:1043900080F3118810BD0000B40000202E2E5C4672
:1043A00072656552544F535C706F727461626C65D4
:1043B0005C525644535C41524D5F434D335C706FC9
:1043C00072742E63000000004572726F723A25739A
:1043D0002C25640D0A00000070B500282AD0164D67
:1043E000A0F108046068E968084205D14FF4A072A2
:1043F00012A11CA0FBF762FF206828B140F2411215
:104400000EA118A0FBF75AFF6068E968084211D0B6
:104410002268002A0ED18843606000F0B1FA60681B
:104420006968084468602046FFF7B0FBBDE870404B
:1044300000F062BF70BD00009C0000202E2E5C4684
:1044400072656552544F535C706F727461626C6533
:104450005C4D656D4D616E675C686561705F342EA3
:10446000630000004572726F723A25732C25640D4B
:104470000A00000006484FF47A710068B0FBF1F1C1
:104480004FF0E020491E41610721016170470000A3
:104490001400002010B5FBF7EBFE104C10280CD3D5
:1044A00000F1E02090F8F0032178884205D24FF423
:1044B0002A720BA115A0FBF701FF18480068A1683C
:1044C00000F4E060884207D9BDE810404FF42E7236
:1044D00003A10EA0FBF7F2BE10BD0000B400002047
:1044E0002E2E5C4672656552544F535C706F727429
:1044F00061626C655C525644535C41524D5F434D62
:10450000335C706F72742E63000000004572726F2E
:10451000723A25732C25640D0A0000000CED00E0B2
:1045200010B5074B002253F832401CB1521C082A28
:10453000F9D310BD43F8321003EBC201486010BD3F
:10454000B002002070B515460E460446FFF7D6FEB1
:1045500094F944100020491C01D184F8440094F9D6
:104560004510491C01D184F84500FFF703FFA06BFB
:1045700028B92A46314604F1240000F06BF82046A1
:10458000BDE87040FFF742BD10B5040012D00E49DF
:10459000096B29B140F2CF420CA111A0FBF78EFEAE
:1045A00000F0EEF900212046FFF710F900F0A4FE1C
:1045B000002807D10E494FF080500860BFF34F8F9D
:1045C000BFF36F8F10BD00004C0000202E2E5C4604
:1045D00072656552544F535C7461736B732E630044
:1045E0004572726F723A25732C25640D0A00000023
:1045F00004ED00E001490120C86170474C00002033
:1046000070B50D46040005D140F6063207A10CA096
:10461000FBF754FE0E48016820461831FFF74AFEAA
:104620002846BDE870400121FFF7D0B82E2E5C4629
:1046300072656552544F535C7461736B732E6300E3
:104640004572726F723A25732C25640D0A000000C2
:104650004C00002070B514460E46050005D140F60A
:10466000313209A10DA0FBF729FE10480168284648
:104670001831FFF737FE0CB14FF0FF3621463046B8
:10468000BDE87040FFF7A2B82E2E5C4672656552F9
:10469000544F535C7461736B732E63004572726F79
:1046A000723A25732C25640D0A0000004C0000208E
:1046B00070B5040039D01D4DE06A2968C96A884286
:1046C00033D2A069002804DB2868C06AC0F120004A
:1046D000A061E06A164E00EB8000616906EB800085
:1046E00081421FD1201DFFF7C5FD012150B9E06AAD
:1046F00000EB800256F8222022B92A6901FA00F064
:1047000082432A612868C06AE0622A6981401143B5
:10471000296100EB800006EB8000211DBDE87040A0
:10472000FFF7E0BD2868C06AE06270BD4C00002061
:10473000F002002070B504002BD01A4D2868844286
:104740002FD0FFF7DBFD2046FFF722FCE8B1201D4C
:10475000FFF790FDE06A01212A6981401143296138
:10476000114900EB800001EB8000211DFFF7BAFD2D
:10477000E06A2968C96A884207D30C494FF0805023
:104780000860BFF34F8FBFF36F8FBDE87040FFF736
:10479000F1BDBDE8704040F2AB6205A109A0FBF796
:1047A0008DBD70BD4C000020F002002004ED00E043
:1047B0002E2E5C4672656552544F535C7461736B68
:1047C000732E63004572726F723A25732C25640D47
:1047D0000A00000010B5040005D140F6C13205A161
:1047E00009A0FBF76BFD0C48016A2160C06860609E
:1047F00010BD00002E2E5C4672656552544F535C0E
:104800007461736B732E63004572726F723A257315
:104810002C25640D0A0000004C0000201CB5174830
:104820000024CDE900402346822215A1164800F05D
:1048300009FC012803D100F00BFE01280AD0401C1E
:104840001BD102B040F28472BDE810400FA114A049
:10485000FBF734BD502080F31188BFF34F8FBFF3B7
:104860006F8F06484FF0FF312C3881620121416182
:10487000C460BDE81C4000F0C9B81CBD7800002031
:1048800049444C4500000000A53A00082E2E5C4625
:1048900072656552544F535C7461736B732E630081
:1048A0004572726F723A25732C25640D0A00000060
:1048B00070B50446FFF722FD244D04B92C68201D75
:1048C000FFF7D8FC58B9E06A214A00EB800152F8A2
:1048D000211021B901218140286988432861A06AFB
:1048E00018B104F11800FFF7C5FC211D1948FFF7A6
:1048F000F9FCFFF73FFD686928B1FFF7FFFCFFF700
:10490000BBFAFFF737FD2868844211D1686980B18E
:10491000286B28B140F257620FA114A0FBF7CEFC20
:1049200016494FF080500860BFF34F8FBFF36F8F71
:1049300070BD0848A9680068884202D1002028603C
:1049400070BDBDE8704000F023B800004C000020AE
:10495000F0020020C00500202E2E5C4672656552D4
:10496000544F535C7461736B732E63004572726FA6
:10497000723A25732C25640D0A00000004ED00E056
:104980000248016B491C0163704700004C00002085
:1049900070B5134D286B10B10120E86170BD002087
:1049A000E86128690F4EB0FA80F0C0F11F0000EBFB
:1049B000800456F8240028B940F6F6220AA10FA078
:1049C000FBF77CFC06EB840000F1080241684968B3
:1049D0004160914201D149684160C868286070BD5A
:1049E0004C000020F00200202E2E5C4672656552BD
:1049F000544F535C7461736B732E63004572726F16
:104A0000723A25732C25640D0A0000001CB51A4962
:104A100008780190FF20087008788DF800009DF854
:104A20000000164A00F0500010700720906007E068
:104A30009068401E90609DF8000040008DF80000D6
:104A40009DF800000006F3D4107A000200F4E06044
:104A50009060019808700A48016841F47001016093
:104A6000016841F070410160FFF704FD00205060D3
:104A7000FBF7C8FB00201CBD00E400E0B4000020F0
:104A800020ED00E010B5502080F31188BFF34F8F68
:104A9000BFF36F8F00F016FB18B104494FF0805040
:104AA0000860002080F3118810BD000004ED00E0D4
:104AB0002DE9F04117460E46050005D14FF4C472AA
:104AC00010A115A0FBF7FAFBBEB105FB06F05430B0
:104AD000FFF7D8FA04000ED004F154007EB1206034
:104AE000C4E90F562046012100F0E0F884F8507028
:104AF00000212046A164BDE8F0810020E7E72460A2
:104B0000EEE700002E2E5C4672656552544F535CF2
:104B100071756575652E63004572726F723A257303
:104B20002C25640D0A0000002DE9FF4F83B09B4641
:104B30008A4604004FF0000605D140F2DC4251A144
:104B400055A0FBF7BBFBBAF1000F07D1206C28B1D1
:104B500040F2DD424BA150A0FBF7B0FB00F09EFA03
:104B600038B9059828B14FF49C6246A14AA0FBF7DA
:104B7000A5FB4FF000094FF08057DFF82C81FFF7BD
:104B8000BDFBA56B45B351462046E668FEF710FF16
:104B9000BBF1000F13D0E660606A50B104F124004D
:104BA00000F05EFB28B1C8F80070BFF34F8FBFF371
:104BB0006F8FFFF7DFFB012007B0BDE8F08F6D1EA0
:104BC000A563206810B9FFF7E7FA60602069002844
:104BD000EFD004F11000E3E7059808B11EB106E03C
:104BE000FFF7C8FB27E06846FFF7F4FD0126FFF753
:104BF000C1FBFFF7C5FEFFF781FB94F94400401CA1
:104C000001D184F8449094F94500401C01D184F806
:104C10004590FFF7AFFB05A9684600F0CFF90028E3
:104C200020460AD0FFF7F2F900F066FB2046FEF7B7
:104C3000EFFF0028A3D00020BEE7FEF7E9FFD8B1C0
:104C4000206830B9FFF75AFB6068FFF731FDFFF7C6
:104C500091FB04F124000599FFF7D2FC2046FFF7F1
:104C6000D5F900F049FB002889D1C8F80070BFF3DE
:104C70004F8FBFF36F8F82E72046FFF7C7F900F031
:104C80003BFB7CE72E2E5C4672656552544F535CAD
:104C900071756575652E63004572726F723A257382
:104CA0002C25640D0A00000004ED00E070B50D46EF
:104CB000040005D140F21B121CA121A0FBF7FEFA53
:104CC000FFF71CFBD4E90F20216802FB0011616093
:104CD0000021A1632168A1600A46D4E90F01401EAA
:104CE00000FB0121E16021464FF0FF3001F8440F45
:104CF000487004F110004DB1FFF7CEFA04F1240022
:104D0000FFF7CAFAFFF736FB012070BD21690029C1
:104D1000F8D000F0A5FA0028F4D00D494FF08050EB
:104D20000860BFF34F8FBFF36F8FEBE72E2E5C460B
:104D300072656552544F535C71756575652E6300DD
:104D40004572726F723A25732C25640D0A000000BB
:104D500004ED00E02DE9FF4F83B099468B46040037
:104D60004FF0000605D140F2D92252A156A0FBF720
:104D7000A5FABBF1000F07D1206C28B140F2DA226E
:104D80004CA151A0FBF79AFAB9F1020F08D1E06BE0
:104D9000012805D040F2DB2246A14BA0FBF78EFA9A
:104DA00000F07CF938B9059828B140F2DE2241A123
:104DB00045A0FBF783FA4FF0000A4FF08057DFF869
:104DC0001881FFF79BFAA06BE16B884206D3B9F11B
:104DD000020F03D0059800B316B325E04A465946A2
:104DE0002046FEF7F8FDA16C21B149462046FEF7AA
:104DF0001DFF05E0616A19B104F1240000F030FAEA
:104E000028B1C8F80070BFF34F8FBFF36F8FFFF763
:104E1000B1FA012007B0BDE8F08FFFF7ABFA21E04F
:104E20006846FFF7D7FC0126FFF7A4FAFFF7A8FDB5
:104E3000FFF764FA94F94400401C01D184F844A0BF
:104E400094F94500401C01D184F845A0FFF792FA7F
:104E500005A9684600F0B2F830B12046FFF7D6F851
:104E600000F04AFA0020D5E7FFF748FAA06BE16BA3
:104E7000884201D1012500E00025FFF77BFA95B1BA
:104E800004F110000599FFF7BBFB2046FFF7BEF8C1
:104E900000F032FA002894D1C8F80070BFF34F8FA9
:104EA000BFF36F8F8DE72046FFF7B0F800F024FACC
:104EB00087E700002E2E5C4672656552544F535CA6
:104EC00071756575652E63004572726F723A257350
:104ED0002C25640D0A00000004ED00E02DE9F047E8
:104EE000984615468946040005D140F29F322AA112
:104EF0002EA0FBF7E3F9B9F1000F07D1206C28B120
:104F00004FF4687224A129A0FBF7D8F9B8F1020F79
:104F100008D1E06B012805D040F2A1321EA123A0E8
:104F2000FBF7CCF9FFF7B6FA5020EFF3118780F3C7
:104F30001188BFF34F8FBFF36F8FA06BE16B884277
:104F400007D3B8F1020F04D0002087F31188BDE821
:104F5000F08794F94560424649462046FEF73BFDFE
:104F6000701C04D0761C84F845600120EDE7A06C2D
:104F7000012620B141462046FEF758FE06E0606A51
:104F80000028F2D004F1240000F06AF90028ECD0E7
:104F9000002DEAD02E60E8E72E2E5C467265655241
:104FA000544F535C71756575652E63004572726F61
:104FB000723A25732C25640D0A00000070B50D4669
:104FC000040005D140F6CB3214A119A0FBF776F905
:104FD0002DB940F6CC3211A115A0FBF76FF9FFF700
:104FE0008DF9174AD06829684B1C0FD02368126AC4
:104FF000934202D0626882420AD96268801A88426B
:1050000006D2081A28602046FFF7E4FB002400E0DF
:105010000124FFF7AFF9204670BD00002E2E5C463C
:1050200072656552544F535C7461736B732E6300E9
:105030004572726F723A25732C25640D0A000000C8
:105040004C0000202DE9FF5F8346DDE90E8799467D
:1050500016468A469000FFF715F805001AD05C2026
:10506000FFF710F8040012D025630021CDE90241BA
:10507000CDE900874B46324651465846FEF726FD9D
:105080002046FEF7DBFB012004B0BDE8F09F284678
:10509000FFF7A2F94FF0FF30F6E70000054841693D
:1050A00019B1006B18B10020704701207047022031
:1050B000704700004C0000200148C06870470000A5
:1050C0004C0000202DE9F0412D4F0026386B40B1F7
:1050D000B869401CB861F86900B101263046BDE8E6
:1050E000F081FD686D1CFD6011D1786B006828B1FE
:1050F00040F6D91223A128A0FBF7E0F8786BB96B32
:105100007963B863386A401C3862FEF7B5FEB86A46
:10511000DFF89480854209D3786B006880B1786BA2
:10512000C068C468606885420DD2B8623868C06AD9
:1051300000EB800158F821000128CCD90126CAE7EC
:105140004FF0FF30F1E7201DFFF794F8A06A18B187
:1051500004F11800FFF78EF8E06A01213A698140F6
:105160001143396100EB800108EB8100211DFFF73D
:10517000B9F8E06A3968C96A8842CDD30126CBE71D
:105180004C0000202E2E5C4672656552544F535CD5
:105190007461736B732E63004572726F723A25737C
:1051A0002C25640D0A000000F002002070B50400F8
:1051B0004FF000063CD01F4D2868844205D040F6D1
:1051C000C7621DA121A0FBF779F8206D28B940F630
:1051D000C96219A11DA0FBF771F8206D401E206562
:1051E000E26CE16A914223D010BB201DFFF742F828
:1051F0001A49012250B9E06A00EB800351F82330CC
:1052000023B92B6902FA00F083432B61E06CE06262
:10521000C0F12000A061E06A2B6982401A432A6134
:1052200000EB800001EB8000211DFFF75BF80126F9
:10523000304670BD4C0000202E2E5C4672656552D3
:10524000544F535C7461736B732E63004572726FBD
:10525000723A25732C25640D0A000000F00200202C
:105260002DE9F041C068C4682CB940F6613216A13E
:105270001AA0FBF723F804F118000746FEF7FAFF1F
:105280001A4D286B012660B139461948FFF72AF8F4
:10529000E06A2968C96A884213D90120EE61BDE835
:1052A000F081201DFEF7E6FFE06A2A6906FA00F1A8
:1052B000114329610F4900EB800001EB8000211DA3
:1052C000E4E70020EBE700002E2E5C467265655295
:1052D000544F535C7461736B732E63004572726F2D
:1052E000723A25732C25640D0A0000004C00002042
:1052F00098050020F00200202DE9F0472B4D0024F6
:105300002746286B28B94FF4FD6229A12DA0FAF792
:10531000D5FFFEF7F3FF286B401E2863286BE8BB20
:10532000A8682C490126C8B3A1F52A798846D8F87F
:105330000010E9B1D8F80C00C46804F11800FEF7B9
:1053400099FF201DFEF796FFE06A2A6906FA00F130
:105350001143296100EB800109EB8100211DFEF75B
:10536000C1FFE06A2968C96A8842E0D3EE61DEE7DE
:105370000CB1FEF781FDAC693CB1FFF7A3FE00B1B3
:10538000EE61641EF9D10020A861E86930B11249CC
:10539000012738070860BFF34F8F00E001E0BFF33B
:1053A0006F8FFEF7E7FF3846BDE8F0874C0000201E
:1053B0002E2E5C4672656552544F535C7461736B5C
:1053C000732E63004572726F723A25732C25640D3B
:1053D0000A0000009805002004ED00E02DE9F047E8
:1053E0000746994616460D462C20DDF820A0FEF70C
:1053F00049FE040014D0B8464F46D1462DB94FF4AB
:10540000C67209A10EA0FAF759FFFEF77FFA04F160
:105410001801C4F8008081E8E002201DFEF747FF74
:105420002046BDE8F08700002E2E5C46726565526E
:10543000544F535C74696D6572732E6300000000F5
:105440004572726F723A25732C25640D0A000000B4
:105450001CB50024FEF75AFA0C48006868B10B49E5
:105460001F20091DCDE9000100234FF4827208A11D
:105470000948FFF7E7FD040005D140F2331207A108
:105480000CA0FAF71BFF20461CBD0000880000207E
:10549000546D722053766300E53F00082E2E5C4663
:1054A00072656552544F535C74696D6572732E63F7
:1054B000000000004572726F723A25732C25640D4E
:1054C0000A0000002DE9FF47DDF830A0994690461C
:1054D0000D4606004FF0000705D14FF4D37212A11C
:1054E00017A0FAF7EBFE1A4C206880B1CDE90058FE
:1054F0000296062D11DAFFF7D1FD02284FF00003C6
:1055000009D0002269462068FFF724FC074604B052
:105510003846BDE8F0875246F4E700234A4669461C
:10552000FFF7DCFCF2E700002E2E5C467265655248
:10553000544F535C74696D6572732E6300000000F4
:105540004572726F723A25732C25640D0A000000B3
:10555000880000204FEA1153A3F58063D3F11E03A6
:10556000A8BFD3F1200C08DB4FF0004242EAC12271
:1055700052EA505232FA03F0704709420BD4102B12
:10558000C4BF0020704703F5787CBCF1FF3F05D015
:105590004FF0FF3070474FF00000704770B500F0DB
:1055A000C3F800BF4992248000207047F0E7B0FAAA
:1055B00080F310FA03F10AD0C3F11D0303F58063F1
:1055C0004FEA41504FEA035202EBD12170474FF0AE
:1055D00000007047DFF848C170B51CEA111E1EBFFD
:1055E0001CEA13159EEA0C0F95EA0C0F00F06F8071
:1055F00081EA030423EA4C134EEAD47E21EA4C11DB
:1056000041F4801143F48013AE44A1FB024CA0FB93
:105610000365AEF17F7E361955EB0C05A1FB034CFB
:105620004CF10003A0FB021C16EB0C06654153F184
:105630000003094218BF46F0010613F4007F0BD1A6
:105640004FEA03314FEA0530340341EA155140EA8D
:1056500016506FF003020AE04FEAC3214FEAC5205B
:10566000F40241EA555140EA56506FF0020202EB53
:105670002E4201EB025585EACE710AD05FEA440C56
:1056800018BF24F0004450F1000041F1000120EA6D
:10569000D47040F2FE7C624500D270BDA84214BFB7
:1056A0004FF080444FF04044002E08BF0024BEF16C
:1056B000806FA8BFA1F1C041BDE8704080F2828038
:1056C0004FF0000001F1C04101F0004170479EEA37
:1056D0000C0F0CEA131518BF95EA0C0F06D04FF00B
:1056E000000081EA030E0EF0004170BD00F01CF8CE
:1056F0008900013E00F007B800F009B84FEA430CFA
:105700005FEA5C5C08D081EA030100F05BB84FEA15
:10571000410C5FEA5C5CF6D14FF000000149704734
:105720000000FF070000F87F0EF1020E2EF0030EBE
:105730005EF8046B364205D4012A43EB030515F5E8
:10574000001F12D8012841EB010C1CF5001F0CD8DA
:105750000ED14FEAD17C15F5001F0CEB4C0C0CF16F
:10576000020C08BF4CEBD37C04E04FF0080C01E0C6
:105770004FEAD37C0CEB4C0526FA05F606F007063B
:10578000B6F1040C06D20EEB860CBDE870404CF06E
:10579000010C6047DFE80CF0090B02024FF00041FA
:1057A0004FF00000A1F5002170BD194610460128F8
:1057B00051EB010418BFD4F5001484BF002001F0A0
:1057C000004170BD0808A0F500114FEA3101704793
:1057D00000000000000000000000000000000000C9
:1057E0003F4000000000000000003000400030009A
:1057F0004000000009000BC03D000BC03D00090047
:1058000018C024407FE0224031800000180024C0EE
:105810001B000D803240018003801C4027401C800B
:105820000740004010006000000000000000000081
:105830000000000000001F802040402000004020A9
:1058400020401F8000000000090006001F800600A5
:1058500009000000040004003F8004000400000070
:1058600000100060000000000000000004000400C0
:1058700004000400040000000000004000000000DC
:1058800000000000002001C00600380040000000B9
:105890001F802040204020401F800000000010405A
:1058A0003FC000400000000018C0214022402440BA
:1058B0001840000010802040244024401B8000003D
:1058C00002000D0011003FC0014000003C80244058
:1058D00024402440238000001F8024402440344082
:1058E000038000003000200027C0380020000000A6
:1058F0001B802440244024401B8000001C0022C048
:10590000224022401F8000000000000008400000EC
:105910000000000000000000046000000000000023
:10592000000004000A001100208040400900090026
:10593000090009000900000000004040208011001B
:105940000A00040018002000234024001800000072
:105950001F802040274029401F400000004007C012
:1059600039000F0001C0004020403FC024402440C7
:105970001B8000001F80204020402040308000001D
:1059800020403FC0204020401F80000020403FC0FA
:1059900024402E4030C0000020403FC024402E0054
:1059A000300000000F0010802040224033800200B1
:1059B00020403FC0040004003FC020402040204061
:1059C0003FC02040204000000060202020203FC039
:1059D0002000200020403FC024400B0030C0204069
:1059E00020403FC020400040004000C03FC03C007D
:1059F00003C03C003FC0000020403FC00C402300DB
:105A00003FC020001F802040204020401F80000019
:105A100020403FC024402400180000001F80214087
:105A2000214020E01FA0000020403FC0244026006D
:105A300019C0004018C0244024402240318000009A
:105A4000300020403FC020403000000020003F8058
:105A5000004000403F80200020003E0001C00700C1
:105A600038002000380007C03C0007C038000000A4
:105A7000204039C0060039C02040000020003840D6
:105A800007C0384020000000304021C02640384088
:105A900020C00000000000007FE040204020000007
:105AA000000070000C000380004000000000402057
:105AB00040207FE0000000000000200040002000A7
:105AC0000000000000100010001000100010001076
:105AD0000000000040000000000000000000028004
